:020000040800F2
:10000000A80700208901000825200008BD1E00085F
:1000100021200008F9030008372000080000000034
:100020000000000000000000000000002B2000087D
:100030000D04000800000000292000082D20000801
:10004000A3010008A3010008A3010008A301000800
:10005000A3010008A3010008A3010008A3010008F0
:10006000A3010008A3010008A3010008FD03000884
:10007000A3010008A3010008A3010008A3010008D0
:10008000A3010008A3010008A3010008A3010008C0
:10009000A3010008A3010008A3010008A3010008B0
:1000A000A3010008A3010008A3010008A3010008A0
:1000B000A3010008A3010008A3010008A301000890
:1000C000A3010008A3010008A3010008A301000880
:1000D000A3010008A3010008A3010008A301000870
:1000E000A3010008A3010008A301000800F002F822
:1000F00000F03AF80AA090E8000C82448344AAF188
:100100000107DA4501D100F02FF8AFF2090EBAE885
:100110000F0013F0010F18BFFB1A43F0010318473B
:100120004425000064250000103A24BF78C878C137
:10013000FAD8520724BF30C830C144BF04680C60ED
:10014000704700000023002400250026103A28BF35
:1001500078C1FBD8520728BF30C148BF0B60704739
:100160001FB51FBD10B510BD00F058F81146FFF7C0
:10017000F7FF02F069F800F076F803B4FFF7F2FF3A
:1001800003BC00F07DF8000009488047094800479B
:10019000FEE7FEE7FEE7FEE7FEE7FEE7FEE7FEE737
:1001A000FEE7FEE704480549054A064B7047000094
:1001B00035200008ED000008A8010020A807002055
:1001C000A8030020A80300204FF0000200B513464A
:1001D00094469646203922BFA0E80C50A0E80C5067
:1001E000B1F12001BFF4F7AF090728BFA0E80C5018
:1001F00048BF0CC05DF804EB890028BF40F8042B11
:1002000008BF704748BF20F8022B11F0804F18BF7D
:1002100000F8012B7047704770477047754600F033
:100220002BF8AE4605006946534620F00700854688
:1002300018B020B5FFF7B6FFBDE820404FF000062C
:100240004FF000074FF000084FF0000B21F00701BE
:10025000AC46ACE8C009ACE8C009ACE8C009ACE801
:10026000C0098D46704710B50446AFF300802046A4
:10027000BDE81040FFF781BF0048704744010020EF
:1002800001491820ABBEFEE726000200704770B59A
:10029000044600252068806800F0010018B320683B
:1002A000806820F001002168886001F029F8054687
:1002B00013E001F025F8401B02280ED92068806861
:1002C00000F0010048B1A06A40F01000A062E06AAE
:1002D00040F00100E062012070BD2068806800F0FD
:1002E00001000028E5D10020F6E770B505466C6AEC
:1002F000A06A00F05000E0B9A06A40F40070A0626B
:100300002068806800F46020B0F5602F0DD1207B5C
:1003100058B9A06A20F48070A062A06A00F48050EE
:1003200018B9A06A40F00100A062204600F0B0F9C0
:1003300003E0206A016B2846884770BD70B505460A
:100340006C6AA06A40F04000A062E06A40F00400DD
:10035000E062204600F09EF970BD70B50446656A03
:10036000284600F096F970BD38B5044600250020F7
:1003700000902068806800F0010078BB20688068E9
:1003800040F0010021688860194800681949B0FBF5
:10039000F1F0009002E00098401E009000980028C4
:1003A000F9D100F0ADFF054619E000F0A9FF401BB0
:1003B000022814D92068806800F0010078B9A06A8A
:1003C00040F01000A062E06A40F00100E06200BF6F
:1003D000002084F8240000BF012038BD05E020681B
:1003E000806800F001000028DFD00020F5E7000061
:1003F0002400002040420F0000BFFEE710B5024875
:1004000000F08AFC10BD0000B8000020704772B6F2
:1004100000BFFEE7F8B5044600260020009000BFAC
:1004200094F82400012801D10220F8BD012084F8AD
:10043000240000BF2046FFF72AFF06462046FFF7AC
:1004400093FF0646002E69D1A06A20F4885040F040
:100450000200A062022001F02BF834490968B1FBC8
:10046000F0F04000009002E00098401E00900098DC
:100470000028F9D12068806840F008002168886071
:1004800000F03EFF054616E000F03AFF401B0A2848
:1004900011D92068806800F0080060B1A06A20F0DF
:1004A000020040F01000A06200BF002084F8240089
:1004B00000BF0120B9E72068806800F0080000282C
:1004C000E2D12068806840F004002168886000F074
:1004D00017FF054616E000F013FF401B0A2811D94C
:1004E0002068806800F0040060B1A06A20F002007B
:1004F00040F01000A06200BF002084F8240000BF7C
:10050000012092E72068806800F004000028E2D112
:10051000A06A20F0020040F00100A06200BF0020AD
:1005200084F8240000BF30467FE70000240000204C
:1005300038B5024600230020009000BF92F8240046
:10054000012801D1022038BD012082F8240000BF1B
:100550004868072812D21068406B0C79641E04EBBF
:1005600084051F24AC40A0430D796D1E05EB850565
:100570000C68AC4020431468606327E048680D288D
:1005800012D21068006B0C79E41F04EB84051F2461
:10059000AC40A0430D79ED1F05EB85050C68AC4020
:1005A00020431468206311E01068C06A0C790D3C88
:1005B00004EB84051F24AC40A0430D790D3D05EBF1
:1005C00085050C68AC4020431468E06208680A287E
:1005D00012D31068C0680C780A3C04EB4405072469
:1005E000AC40A0430D780A3D05EB45058C68AC4056
:1005F00020431468E0600FE0106800690C7804EB99
:1006000044050724AC40A0430D7805EB45058C68F4
:10061000AC402043146820610868102802D00868A4
:10062000112827D1174C1068A0421ED1106880688D
:1006300000F40000F0B91068806840F4000014680D
:10064000A0600868102815D10F4800680F4CB0FB57
:10065000F4F000EB80004000009002E00098401EA3
:10066000009000980028F9D104E0906A40F0200042
:100670009062012300BF002082F8240000BF1846CA
:1006800061E70000002401402400002040420F00E8
:100690007047704770470146886A7047014608688E
:1006A000C06C70472DE9F041044600270025002664
:1006B000A84614B90120BDE8F081A06810B1207DE2
:1006C00000B100BFA06A30B90020E06284F82400C5
:1006D000204600F089F82046FFF7D9FD0746A06ABA
:1006E00000F01000002873D1002F71D1A06A20F40F
:1006F000885040F00200A062E16960680843217BF5
:1007000040EA41000643A068B0F5807F02D0A068AF
:10071000012802D14FF4807000E000200543207DC5
:10072000012811D1207B38B9A069401E4FF4006127
:1007300041EA4030054307E0A06A40F02000A06293
:10074000E06A40F00100E0622068406820F46940FF
:100750002843216848602068806821490840304368
:1007600021688860A068B0F5807F02D0A068012869
:1007700002D14FF4807000E00020B0F5807F03D1FB
:10078000208A401E4FEA00582068C06A20F470009A
:1007900040EA08002168C862206880681149084062
:1007A000B04208D10020E062A06A20F0020040F0D0
:1007B0000100A06211E0A06A20F0020040F01000E9
:1007C000A062E06A40F00100E062012705E0FFE777
:1007D000A06A40F01000A062012738466BE70000D5
:1007E000FDF7E1FFFE0E1FFF10B586B004460020A6
:1007F00002900390049005903549206888423ED1CC
:1008000000BF3448806940F400703249886108466E
:10081000806900F40070019000BF00BF00BF08466F
:10082000806940F0040088610846806900F0040097
:10083000019000BF00BF022002900320039002A994
:10084000254800F0CDFB2548254908600020486078
:100850000021234881608021C16049000161890035
:100860004161202181610021C16100F023FB08B1B9
:10087000FFF7CDFD00BF1A482062446226E0194907
:100880002068884222D100BF1248806940F480600D
:10089000104988610846806900F48060019000BFBB
:1008A00000BF00BF0846806940F004008861084628
:1008B000806900F00400019000BF00BF0420029096
:1008C0000320039002A9044800F08AFB06B010BD83
:1008D00000240140001002400008014008000240CE
:1008E000B800002000280140F8B504460D46002657
:1008F00000200090002700F003FD06462068806875
:1009000000F4807050B1A06A40F02000A06200BFE7
:10091000002084F8240000BF0120F8BD2068406852
:1009200000F4807020BB2068C06A00F47000F8B941
:1009300017E0681CA8B125B100F0E2FC801BA842BA
:100940000FD92068006800F0020050B9A06A40F09A
:100950000400A06200BF002084F8240000BF032030
:10096000DBE72068006800F002000028E1D053E0D7
:10097000022000F09DFD38490968B1FBF0F02168C4
:100980000969364A114091B92168C968921111402C
:1009900069B921680969324A114031B92168C968C9
:1009A0009211114009B9142117E0292115E021689D
:1009B00009692B4A114021B92168C9689211114077
:1009C00041B121680969274A114029B92168C968DC
:1009D000114009B9542100E0FC2100FB01F718E0A7
:1009E000681C98B125B100F08BFC801BA8420DD982
:1009F0000098B8420AD2A06A40F00400A06200BF8A
:100A0000002084F8240000BF032086E70098401CE3
:100A100000900098B842E3D36FF01200216808609C
:100A2000A06A40F40070A0622068806800F4602032
:100A3000B0F5602F0DD1207B58B9A06A20F48070EA
:100A4000A062A06A00F4805018B9A06A40F00100CA
:100A5000A062002061E700002400002024499224C5
:100A6000922449124992240070B50446002500BF23
:100A700094F82400012801D1022070BD012084F8DF
:100A8000240000BF2046FFF76FFC0546002D77D1FC
:100A9000A06A40F20121884340F48070A0623C4982
:100AA0002068884208D13B48006800F4702008B9EB
:100AB000012002E0002000E0012078B1A06A20F4CB
:100AC0008010A0622068406800F4806000B3A06AD3
:100AD00020F4005040F48050A06219E0A06A40F475
:100AE0008010A0622B49091F2068884203D0284942
:100AF0002068884204D12748006800F4806000E044
:100B0000002028B1A06A20F4005040F48050A06278
:100B1000A06A00F4805020B1E06A20F00600E06294
:100B200001E00020E06200BF002084F8240000BF44
:100B3000C01E216808602068806800F46020B0F55D
:100B4000602F16D112492068884208D111480068E8
:100B500000F4702008B9012002E0002000E001202C
:100B600038B12068806840F4A000216888600CE0FB
:100B700006E02068806840F480102168886004E006
:100B800000BF002084F8240000BF284675E700005D
:100B900000280140042401402DE9F04104460D469F
:100BA0001646002757492068884203D056492068D6
:100BB000884205D15348001D006800F4702000E011
:100BC000002000287ED100BF94F82400012802D123
:100BD0000220BDE8F081012084F8240000BF2046F7
:100BE000FFF7C2FB0746002F6DD1A06A40F60161F6
:100BF000884340F48070A06243492068884209D14C
:100C00004048001D006800F4702008B9012002E08F
:100C1000002000E0012078B1A06A20F48010A062DA
:100C20002068406800F4806000B3A06A20F400509F
:100C300040F48050A06219E0A06A40F48010A062E5
:100C400030492068884203D02F492068884205D166
:100C50002C48001D006800F4806000E0002028B1EE
:100C6000A06A20F4005040F48050A062A06A00F412
:100C7000805020B1E06A20F00600E06201E0002030
:100C8000E06200BF002084F8240000BF1F48216AF2
:100C900088621F48216AC8621E48216A08636FF093
:100CA0000200216808602068806840F48070216834
:100CB0008860226802F14C0133462A46206A00F01F
:100CC0002DF901E01AE014E02068806800F460204B
:100CD000B0F5602F06D12068806840F4A00021683C
:100CE00088600CE02068806840F48010216888608B
:100CF00005E000BF002084F8240000E0012738460A
:100D000067E700000024014000280140EB020008D2
:100D10005B0300083D03000870B50446E06B0568FE
:100D20002068066894F84010042088402840002875
:100D300046D006F00400002842D02068006800F089
:100D4000200028B92068006820F0040021680860AD
:100D500057492068884201D1042027E054491431C2
:100D60002068884201D1402020E051492831206884
:100D7000884201D1001519E04D493C312068884274
:100D800002D14FF4804011E0494950312068884237
:100D900002D14FF4802009E045496431206888423F
:100DA00002D14FF4800001E04FF0806040490839E3
:100DB0004860E06A00287AD02046E16A884776E0F9
:100DC00094F84010022088402840A0B306F00200AA
:100DD00088B32068006800F0200040B920680068EF
:100DE00020F00A0021680860012084F821003049C1
:100DF0002068884201D1022028E02D491431206862
:100E0000884201D1202021E02949283120688842E8
:100E100001D140151AE026493C312068884202D1B0
:100E20004FF4005012E0224950312068884203D12B
:100E30004FF400300AE017E01D4964312068884211
:100E400002D14FF4001001E04FF00070184908394A
:100E5000486000BF002084F8200000BFA06A30B3C3
:100E60002046A16A884722E094F840100820884074
:100E70002840E0B106F00800C8B12068006820F002
:100E80000E002168086094F8401001208840E16B52
:100E900048600120A06384F8210000BF002084F88E
:100EA000200000BF206B10B12046216B884770BD29
:100EB000080002400146002209B901207047164B84
:100EC0000868C01A1423B0FBF3F0800008641248CD
:100ED0000838C863022081F821000868026843F6D8
:100EE000F0708243D1E901031843CB6818430B69C2
:100EF00018434B6918438B691843CB691843024365
:100F00000868026000208863012081F82100002029
:100F100081F8200000BFD1E7080002402DE9F04130
:100F200004460D4616461F464FF0000800BF94F8D1
:100F30002000012802D10220BDE8F081012084F8C0
:100F4000200000BF94F8210001282CD1022084F851
:100F500021000020A0632068006820F001002168C3
:100F600008603B4632462946204601F0A8F8E06A70
:100F700030B12068006840F00E00216808600BE086
:100F80002068006820F0040021680860206800687C
:100F900040F00A00216808602068006840F0010005
:100FA0002168086006E000BF002084F8200000BF30
:100FB0004FF002084046BFE770B5044600F0A0F9C4
:100FC00006462546681C10B104480078054400BF59
:100FD00000F096F9801BA842FAD370BD20000020D3
:100FE0002DE9F8470346002294466EE14FF00108D0
:100FF00008FA02F4D1F8008008EA0400A0427DD18A
:10100000DFF8DCA2D1F80480A8EB0A09D0453AD079
:1010100014DCB8F1030F50D009DCB8F1000F31D067
:10102000B8F1010F1CD0B8F1020F49D120E0B8F19E
:10103000110F18D0B8F1120F42D11EE0B9F5881F78
:1010400025D006DCB9F5803F20D0B9F5801F37D117
:101050001AE0B9F5001F18D0B9F5041F30D117E018
:10106000D1F80CC02DE0D1F80C8008F1040C28E078
:10107000D1F80C8008F1080C23E0D1F80C8008F1BD
:101080000C0C1EE000BF00BF00BF00BF00BF00BFD0
:10109000D1F80880B8F1000F02D14FF0040C0BE03A
:1010A000D1F80880B8F1010F03D14FF0080C1C6192
:1010B00002E04FF0080C5C6103E04FF0000C00E030
:1010C00000BF00BFFF2801D8984601E003F10408E3
:1010D0004646FF2802D84FEA820803E0A2F108083A
:1010E0004FEA88084746D6F800804FF00F0909FA02
:1010F00007F928EA09080CFA07F900E088E048EA4D
:101100000908C6F80080D1F8048008F08058B8F1CA
:10111000805F7DD100BFDFF8CC81D8F8188048F01F
:101120000108DFF8C091C9F81880C846D8F81880BF
:1011300008F00108CDF8008000BF00BF4FEAB938C1
:101140004FEA920958F829504FEA82784FEA187905
:101150004FF00F0808FA09F825EA0805DFF888813A
:10116000434502D14FF0000816E0DFF88081434587
:1011700002D14FF001080FE0DFF87481434502D13E
:101180004FF0020808E0DFF86C81434502D14FF0D0
:10119000030801E04FF004084FEA82794FEA197919
:1011A00008FA09F848EA0505DFF84C814FEA920988
:1011B00048F82950D1F8048008F48018B8F5801F49
:1011C0000AD1DFF83881D8F8008048EA0008DFF853
:1011D0002C91C9F8008009E0DFF82081D8F8008060
:1011E00028EA0008DFF81491C9F80080D1F80480DB
:1011F00008F40018B8F5001F10D1DFF8008108F1DD
:101200000408D8F8008048EA0008DFF8F09000E011
:101210005AE009F10409C9F800800DE0DFF8DC802C
:1012200008F10408D8F8008028EA0008DFF8CC901C
:1012300009F10409C9F80080D1F8048008F40038E5
:10124000B8F5003F0ED1DFF8B480A8F10408D8F853
:10125000008048EA0008DFF8A490A9F10409C9F861
:1012600000800DE0DFF89480A8F10408D8F8008031
:1012700028EA0008DFF88490A9F10409C9F8008081
:10128000D1F8048008F48038B8F5803F0ED1DFF83B
:101290006C80A8F10808D8F8008048EA0008DFF858
:1012A0005C90A9F10809C9F800800DE0DFF84C80D6
:1012B000A8F10808D8F8008028EA0008DFF83C9078
:1012C000A9F10809C9F80080521CD1F8008028FA59
:1012D00002F8B8F1000F7FF489AEBDE8F88700008E
:1012E000000011100010024000080140000C0140F5
:1012F00000100140001401400800014008040140B2
:10130000014800687047000018000020034800688A
:101310000349097808440149086070471800002013
:101320002000002010B50848006840F01000064971
:101330000860032000F0A8F80F2000F007F800F084
:101340002BF8002010BD00000020024070B50446BC
:101350000E4800784FF47A71B1FBF0F00C4909683F
:10136000B1FBF0F5284600F00FFD08B1012070BD7B
:10137000102C07D200222146501E00F047F80548E5
:10138000046001E00120F2E70020F0E720000020E7
:10139000240000201C00002008B500BF114880690F
:1013A00040F001000F4988610846806900F00100A3
:1013B000009000BF00BF00BF0846C06940F08050E9
:1013C000C8610846C06900F08050009000BF00BFAF
:1013D00000BF0549486820F0E06040F000704860B8
:1013E00000BF08BD00100240000001400146084651
:1013F000002809DB00F01F0301229A4043099B00EB
:1014000003F1E023C3F8002100BF70472DE9F05F2E
:1014100080460D461646002700F00EFF0746394667
:101420002A46334601F00700C0F1070ABAF1040F5B
:1014300002D94FF0040A01E0C0F1070AD14600F1D9
:10144000040ABAF1070F02D24FF0000A01E0A0F13E
:10145000030AD4464FF0010A0AFA09FAAAF1010A6E
:101460000AEA020A0AFA0CFA4FF0010B0BFA0CFB1B
:10147000ABF1010B0BEA030B4AEA0B042146404691
:1014800000F0C6FEBDE8F09F00BF00F00702064B6B
:1014900019684FF6FF031940044B0B4343EA02213E
:1014A000014B196000BF70470CED00E00000FA0529
:1014B0002DE9F04706464FF00008002500270024DC
:1014C000A146012E31D0022E56D0102E5FD13248C7
:1014D0004468006800F0807008B33048C4F383416A
:1014E000475C04F4803078B12B484068C0F340403A
:1014F0002B4911F8008004F4803040B12948B0FB3A
:10150000F8F000FB07F502E0274807FB00F522484A
:10151000406800F48000B0F5800F01D1A94603E0D7
:1015200068000321B0FBF1F932E01B48046A04F4BF
:101530004070B0F5807F05D104F0020010B14FF487
:10154000004918E004F44070B0F5007F07D112485C
:10155000406A00F0020010B149F640490BE004F483
:101560004070B0F5407F06D10B48006800F40030B1
:1015700008B14FF224490BE000F08CF906494968A4
:10158000C1F38131491C4900B0FBF1F900E000BF13
:1015900000BF4846BDE8F087001002403A26000828
:1015A0004A26000800127A0000093D00F8B50446FA
:1015B00000260025207800F0010000286BD00027CD
:1015C0004348C06900F0805070B900BF4048C0690E
:1015D00040F080503E49C8610846C06900F0805024
:1015E000009000BF00BF01273A48006800F48070F7
:1015F000B0B93848006840F4807036490860FFF799
:101600007FFE064606E0FFF77BFE801B642801D9BB
:101610000320F8BD2F48006800F480700028F2D045
:101620002B48006A00F440752DB3A08800F4407088
:10163000A84220D02648006A20F44075012026499F
:101640000860002008602248056205F0010090B1A2
:10165000FFF756FE064608E0FFF752FE801B41F2F8
:101660008831884201D90320D3E71948006A00F085
:1016700002000028F0D01648006A20F4407061682B
:10168000084313490862012F04D10846C06920F0BD
:101690008050C86100BF207800F00200022807D106
:1016A0000B48406820F44040A1680843084948605E
:1016B000207800F01000102807D10548406820F479
:1016C0008000E1680843024948600020A1E700006B
:1016D00000100240007000404004424270B50446D1
:1016E0000D460CB9012070BD5A48006800F0070093
:1016F000A8420ED25748006820F0070028435549F9
:1017000008600846006800F00700A84201D00120E8
:10171000E9E7207800F0020002281DD1207800F0CF
:101720000400042805D14C48406840F4E0604A4970
:101730004860207800F00800082805D14648406835
:1017400040F46050444948604348406820F0F0004D
:10175000A168084340494860207800F0010078B350
:101760006068012806D13C48006800F4003090B958
:101770000120B8E76068022806D13748006800F009
:10178000007040B90120AEE73348006800F0020065
:1017900008B90120A7E73048406820F003006168DD
:1017A00008432D494860FFF7ABFD064609E0FFF707
:1017B000A7FD801B41F28831884202D9032092E7BD
:1017C00007E02548406800F00C006168B0EB810F2D
:1017D000EDD12048006800F00700A8420ED91D484E
:1017E000006820F0070028431A490860084600688E
:1017F00000F00700A84201D0012074E7207800F033
:101800000400042807D11448406820F4E060E1682F
:10181000084311494860207800F00800082808D1E2
:101820000D48406820F46050216940EAC1000A492F
:10183000486000F03FF808494968C1F30311074ABE
:10184000515CC8400649086006480068FFF77EFD05
:10185000002048E700200240001002404C2600080B
:10186000240000201C000020014800687047000090
:101870002400002000B5FFF7F7FF04494968C1F3D1
:101880000221034A515CC84000BD00000010024024
:101890005C26000800B5FFF7E7FF04494968C1F37B
:1018A000C221034A515CC84000BD00000010024044
:1018B0005C26000870B500210022002400230020CF
:1018C000134D696801F00C05EDB1042D02D0082D0F
:1018D0001AD101E00F4819E00F4DC1F38346AB5D0B
:1018E00001F4803555B10A4D6D68C5F340450B4E86
:1018F000725D084D5D43B5FBF2F402E0084D03FB59
:1019000005F4204602E000BF024800BF00BF70BDE2
:101910000010024000127A0028260008382600082D
:1019200000093D00F8B504460CB90120F8BD207847
:1019300000F00100002878D0F848406800F00C0062
:1019400004280CD0F548406800F00C00082811D19C
:10195000F248406800F48030B0F5803F0AD1EF488B
:10196000006800F4003000285FD0606800285CD177
:101970000120DBE700BF6068B0F5803F06D1E74893
:10198000006840F48030E549086028E0606858B994
:10199000E248006820F48030E049086008460068AA
:1019A00020F4802008601AE06068B0F5A02F0BD109
:1019B000DA48006840F48020D8490860084600688A
:1019C00040F4803008600AE0D448006820F4803099
:1019D000D24908600846006820F48020086000BFF3
:1019E000606888B1FFF78CFC054606E0FFF788FCCD
:1019F000401B642801D9032098E7C848006800F418
:101A000000300028F2D010E0FFF77AFC054606E02F
:101A1000FFF776FC401B642801D9032086E7BF4806
:101A2000006800F400300028F2D1207800F00200B5
:101A3000022857D1B948406800F00C0050B1B748AF
:101A4000406800F00C00082818D1B448406800F441
:101A5000803098B9B148006800F0020020B12069D8
:101A6000012801D0012061E7AC48006820F0F800AF
:101A7000616940EAC100A949086033E02069E8B122
:101A80000120A7490860FFF73BFC054606E0FFF789
:101A900037FC401B022801D9032047E79F48006814
:101AA00000F002000028F2D09C48006820F0F80006
:101AB000616940EAC1009949086013E00020984933
:101AC0000860FFF71DFC054606E0FFF719FC401B08
:101AD000022801D9032029E79048006800F002009D
:101AE0000028F2D1207800F0080008282DD1A06944
:101AF000B8B101208B490860FFF702FC054606E0FB
:101B0000FFF7FEFB401B022801D903200EE78348A4
:101B1000406A00F002000028F2D0012000F0E6FA4E
:101B200013E000207F490860FFF7EAFB054606E066
:101B3000FFF7E6FB401B022801D90320F6E67748B1
:101B4000406A00F002000028F2D1207800F0040082
:101B5000042873D100277148C06900F0805070B923
:101B600000BF6E48C06940F080506C49C8610846AB
:101B7000C06900F08050009000BF00BF01276A4894
:101B8000006800F48070B0B96748006840F4807065
:101B900065490860FFF7B4FB054606E0FFF7B0FBB8
:101BA000401B642801D90320C0E65F48006800F4A8
:101BB00080700028F2D000BFE068012806D15748A5
:101BC000006A40F001005549086227E0E06858B912
:101BD0005248006A20F00100504908620846006A35
:101BE00020F00400086219E0E06805280BD14B489A
:101BF000006A40F00400494908620846006A40F063
:101C0000010008620AE04548006A20F001004349EB
:101C100008620846006A20F00400086200BFE0681D
:101C2000A0B1FFF76DFB054609E0FFF769FB401B1C
:101C300041F28831884202D9032077E622E0374812
:101C4000006A00F002000028EFD012E0FFF758FB16
:101C5000054608E0FFF754FB401B41F288318842FB
:101C600001D9032062E62D48006A00F00200002836
:101C7000F0D1012F05D12948C06920F080502749B3
:101C8000C86100BFE069C8B32448406800F00C0098
:101C9000082860D0E069022848D100202049086661
:101CA000FFF72EFB054606E0FFF72AFB401B022844
:101CB00001D903203AE61948006800F000700028B6
:101CC000F2D1206AB0F5803F07D11448406820F473
:101CD0000030A168084311494860D4E9080108436D
:101CE0000E49496821F4741108430C4948600120E9
:101CF0000B490866FFF704FB054607E03DE0FFF7E8
:101D0000FFFA401B022801D903200FE603480068B0
:101D100000F000700028F2D02FE000000010024018
:101D200000004242800442420070004000201449FA
:101D30000866FFF7E5FA054606E0FFF7E1FA401B03
:101D4000022801D90320F1E50E48006800F0007078
:101D50000028F2D111E0E069012800D1E6E5094848
:101D6000466806F48031206A814204D106F470117D
:101D7000606A814201D00120D8E50020D6E500004C
:101D8000000042420010024070B504462546681E1D
:101D9000B0F1807F01D301200FE0681E4FF0E021F9
:101DA00048610F214FF0FF3000F032FA00204FF071
:101DB000E021886107200861002070BD10B504464D
:101DC0000CB9012010BDA06900B100E000BF94F87B
:101DD000410028B9002084F84000204600F02AF88D
:101DE000242084F841002068C06820F40050216855
:101DF000C860204600F08EF92068006920F4904009
:101E0000216808612068406920F02A002168486143
:101E10002068C06840F400502168C86000206064F9
:101E2000202084F8410084F842000020606300BF55
:101E3000C8E7000010B586B0044600200290039069
:101E4000049005901A49206888422ED100BF194895
:101E5000806940F48040174988610846806900F431
:101E60008040019000BF00BF00BF0846806940F07D
:101E7000040088610846806900F00400019000BFFA
:101E800000BF48150290022003900320059002A98C
:101E90000948FFF7A5F84FF48060029000200390F6
:101EA000049002A90448FFF79BF806B010BD00009B
:101EB00000380140001002400008014000BFFEE76A
:101EC0000EB5002000900190029011481149086061
:101ED000002110488160017301754FF46021C161D8
:101EE00000200C49486001210A480161FEF7DAFB35
:101EF00008B1FEF78CFA01200090019000200290BA
:101F000069460448FEF714FB08B1FEF780FA0EBDDF
:101F100000240140580000200EB5002000900190E0
:101F20000290124812490860002111488160017333
:101F300001754FF46021C16100200D494860012105
:101F40000B480161FEF7AEFB08B1FEF760FA022014
:101F50000090012001900020029069460448FEF79D
:101F6000E7FA08B1FEF753FA0EBD00000028014061
:101F70008800002008B500BF0A48406940F0010011
:101F8000084948610846406900F00100009000BF20
:101F900000BF002211460B20FFF738FA0B20FFF795
:101FA00025FA08BD0010024008B500BF0D48806941
:101FB00040F020000B4988610846806900F020004D
:101FC000009000BF00BF00BF0846806940F00400D9
:101FD00088610846806900F00400009000BF00BFDF
:101FE00008BD00000010024010B50B480B49086006
:101FF0004FF4E1304860002108488160C160016110
:102000000C21416100218161C161FFF7D7FE08B158
:10201000FEF7FDF910BD000000380140FC00002073
:1020200000BFFEE700BFFEE77047704710B5FFF73F
:102030006DF910BD704700BFFEE700B593B02821D1
:1020400009A8FEF7C1F8142104A8FEF7BDF8002086
:1020500000900190029003900120099000040A90E2
:1020600000200B9001200D9002201090C1031191CF
:102070004FF4E011129109A8FFF754FC08B1FEF7E4
:10208000C6F90F20049002200590002006904FF41E
:102090008060079000200890022104A8FFF71EFB33
:1020A00008B1FEF7B4F90220009080030290684660
:1020B000FFF77CFA08B1FEF7AAF913B000BD30B5FE
:1020C00090F840500124AC40C56B6C6004686360BC
:1020D0004468102C04D10468A2600468E16003E045
:1020E0000468A1600468E26030BD000008B50849DA
:1020F0000968C9084FF47A72B1FBF2F141430091CB
:1021000000BF00BF00994A1E00920029F9D108BD06
:102110002400002070B504462168096921F440516B
:10212000E2681143226811612269A1681143626962
:1021300041EA02052168C96841F20C6291432943D2
:102140002268D1602168496921F44071A269114374
:10215000226851612D4A2168914202D1FFF79AFB12
:1021600001E0FFF787FB00EBC00101EB00116268A3
:102170009200B1FBF2F100EBC00202EB00126368C7
:102180009B00B2FBF3F26423B2FBF3F202EBC20357
:1021900003EB0212A1EB8201322202EB0111642255
:1021A000B1FBF2F101F0F00100EBC00202EB001212
:1021B00063689B00B2FBF3F26423B2FBF3F201EB22
:1021C000021200EBC00101EB001163689B00B1FB40
:1021D000F3F100EBC00303EB00136668B600B3FB3A
:1021E000F6F36426B3FBF6F303EBC30606EB031327
:1021F000A1EB8301322303EB01116423B1FBF3F163
:1022000001F00F0111442268916070BD0038014057
:1022100010B5002804DB0A07130E054A135406E024
:102220000A07140E034A00F00F031B1FD45410BDFD
:1022300000E400E018ED00E002480068C0F302206E
:10224000704700000CED00E0FFF76CF8FFF7F5FEBB
:10225000FFF7AAFEFFF78EFEFFF732FEFFF7C4FE80
:10226000FFF75AFE1A48FEF7D5F81A48FEF7D2F8DB
:102270002DE00C2218491648FEF78EFCFA2114486E
:10228000FEF732FB1348FEF7EFFB32211148FEF751
:102290002BFB1048FEF7FFF900F4007098B10D48D1
:1022A000FEF7FCF90D4908800846008800F0DCF8CC
:1022B00006460B4900F0ECF804464FF08B4100F065
:1022C00011F8054600BF4FF47A70FEF775FED0E7AF
:1022D0005800002088000020280000200000002076
:1022E000333353404FF47F0C1CEAD0121EBF1CEA5C
:1022F000D11392EA0C0F93EA0C0F00F0858090EA5C
:10230000010F48BF42F4807240F4000C41F4000019
:102310002CF07F4120F07F4000B58142A2EB030208
:102320000FF2081CACEB504EC0F100009EF800E02C
:102330004FEA4E0E00FB0EFC38BF49004FEA2C1C42
:1023400002F5FA020CFB0EF34FEACE1E4FEA112CF7
:102350004FEAC1210EEB635E42EB22420EFB0CFC06
:102360004FEA1C5300FB03114FEA112C4FEA0131D5
:102370000EFB0CFC4FEADC4C00FB0C11C14228BFE9
:1023800009184CEB03335DF804EB10EB410143EB10
:10239000C250B2F57C0F38BF704729D512F0F00F4C
:1023A0001CBF00F1C04000F00040704700818283F4
:1023B0008485868788898B8C8D8E8F919293959654
:1023C00097999A9C9D9FA0A2A3A5A7A8AAACAEB0DE
:1023D000B2B3B5B7B9BCBEC0C2C5C7C9CCCED1D4E3
:1023E000D7D9DCDFE2E6E9ECF0F3F7FAFE00000013
:1023F0004FEA400C0CF1807CBCF17E4F28BF704747
:10240000B0F1C04000F00BB990EA010F0CEAD11313
:1024100048BF42F48072624538BF634507D213F467
:102420007F0F16D080EA010000F00040704710B521
:1024300000F0AFF8097EFC3E00F005B880EA01002C
:1024400000F00040704780EA010000F0004000F01A
:10245000E6B812F47F0F04BF0248704780EA01001B
:1024600000F0DDB80000C07FB0FA80F310FA03F28C
:10247000C3F19D030AD0D90501EB1220530638BFE2
:10248000704700F1010008BF20F001007047000014
:102490004FF47F0C1CEAD0121EBF1CEAD11392EA43
:1024A0000C0F93EA0C0F00F0478090EA010F48BF31
:1024B00042F480724FF0004C4CEA00204CEA0121BB
:1024C00002EB0302A0FB0113A2F50002002918BFD2
:1024D00043F001035B0028BF4FEA330342EB224283
:1024E0005FEA132C4CEBC2502EBFBCEB436FB2F52E
:1024F0007C0F70474FEA036CBCF1004F08BF20F01F
:102500000100B2F57C0F38BF70470BD582F0FF0297
:1025100012F5803FC8BF704700F1C040D8BF00F03F
:102520000040704700F5000C5FEA4C0C48BF704754
:10253000B0F1C04000F073B890EA010F0CEAD1137B
:1025400048BF42F48072624538BF634504D280EAD6
:10255000010000F00040704710B500F01AF800BF0D
:102560008900013E00F007B800F009B85FEA410CAD
:102570005FEA1C6C08D080EA010000F050B85FEA06
:10258000400C5FEA1C6CF6D14FF00040A0F58000D3
:1025900070470EF1020E2EF0030E5EF8044B24423B
:1025A00004D44FEA4102B2F17F4F11D84FEA400301
:1025B000B3F17F4F0CD80ED14FEAD07CB2F17F4FF0
:1025C0000CEB4C0C0CF1020C08BF4CEBD17C04E082
:1025D0004FF0080C01E04FEAD17C0CEB4C0324FADD
:1025E00003F404F00704B4F1040C06D20EEB840CDF
:1025F000BDE810404CF0010C6047DFE80CF0070824
:1026000002024FF00040A0F5800010BD08464200D5
:1026100018BFD2F1807288BF00F0004010BDFF21CA
:1026200041EAD050C00570470203040506070809B7
:102630000A0B0C0D0E0F1010010202030405060711
:1026400008090A0B0C0D0E0F10100102000000000B
:102650000000000001020304060708090000000052
:102660000102030484260008000000202800000066
:1026700028010008AC260008280000208007000080
:102680004401000800000000000000000000414478
:1026900043313A00414443323A0000000000000058
:0C26A000100000000100000000127A0091
:04000005080000ED02
:00000001FF
