:020000040800F2
:10000000E8060020290200080F15000889140008DE
:100010000D1500081F040008BD15000800000000B1
:1000200000000000000000000000000013150008A0
:10003000AD040008000000001115000815150008A7
:10004000430200084302000843020008430200087C
:10005000430200084302000843020008430200086C
:10006000430200084302000843020008430200085C
:10007000430200084302000843020008430200084C
:10008000430200084302000843020008430200083C
:10009000430200082104000843020008430200084C
:1000A000430200084302000843020008430200081C
:1000B000430200084302000843020008430200080C
:1000C00043020008430200084302000843020008FC
:1000D00043020008430200084302000843020008EC
:1000E00043020008430200084302000843020008DC
:1000F00043020008430200084302000843020008CC
:1001000043020008430200084302000843020008BB
:1001100043020008430200084302000843020008AB
:10012000430200084302000843020008430200089B
:10013000430200084302000843020008430200088B
:10014000430200084302000843020008430200087B
:10015000430200084302000843020008430200086B
:10016000430200084302000843020008430200085B
:100170004302000843020008430200080000000098
:10018000430200084302000800F002F800F03CF8C7
:100190000AA090E8000C82448344AAF10107DA45E2
:1001A00001D100F031F8AFF2090EBAE80F0013F0F8
:1001B000010F18BFFB1A43F0010318478014000019
:1001C000A0140000103A24BF78C878C1FAD85207AA
:1001D00024BF30C830C144BF04680C6070470000C1
:1001E0000023002400250026103A28BF78C1FBD840
:1001F000520728BF30C148BF0B6070471FB501F0E0
:1002000010FA1FBD10B510BD00F0CFF81146FFF772
:10021000F5FF01F0E4F900F0EDF803B4FFF7F2FFA9
:1002200003BC00F0F5F80000094880470948004782
:10023000FEE7FEE7FEE7FEE7FEE7FEE7FEE7FEE796
:10024000FEE7FEE704480549054A064B70470000F3
:10025000AD15000889010008E8000020E80600202C
:10026000E8020020E802002053EA020C00F0698056
:100270002DE9F04B4FF00006002B1FBFB3FA83F5BA
:1002800003FA05F424FA05F65E4012BF1643B2FAEB
:1002900082F502FA05F4C5F120051EBF22FA05FC1D
:1002A00044EA0C04203556EA044C4FEA144418BFC3
:1002B000641C4FF000084FF00009904271EB030CF2
:1002C00039D3002919BFB1FA81F701FA07F6B0FA5C
:1002D00080F700FA07F6C7F120071EBF20FA07FCD7
:1002E00046EA0C062037B6FBF4FCA7EB0507103FE7
:1002F00007F01F0BCBF120060CFA0BFB2CFA06F6CD
:1003000044BFB3460026202FA4BF5E464FF0000B2B
:100310005BEA060C08BF4FF0010B19EB0B09ABFBB6
:10032000027C48EB0608C01B06FB02CC0BFB03CC8F
:1003300071EB0C01C1E70B46024641464846BDE859
:10034000F08B13B54FF000004FF00001AFF30080C9
:10035000BDE81C4070474FF0000200B513469446BC
:100360009646203922BFA0E80C50A0E80C50B1F10D
:100370002001BFF4F7AF090728BFA0E80C5048BF21
:100380000CC05DF804EB890028BF40F8042B08BFBF
:10039000704748BF20F8022B11F0804F18BF00F8BB
:1003A000012B7047704770477047754600F02CF876
:1003B000AE4605006946534620F00700854618B052
:1003C00020B5FFF73FFFBDE820404FF000064FF09B
:1003D00000074FF000084FF0000B21F00701AC467A
:1003E000ACE8C009ACE8C009ACE8C009ACE8C00999
:1003F0008D46704710B50446AFF300802046BDE837
:100400001040FFF70ABF000000487047840000203A
:1004100001491820ABBEFEE7260002007047FEE748
:10042000014800F0B8B900001C00002038B50E4C9F
:100430004FF4007525600025A560E560082525615D
:100440000A4C050A25706070080AA070E170100A55
:1004500020716271180AA071E3716B46224602494D
:10046000034800F038F838BD6C000020010000207F
:100470001C00002000B58BB000200121CDE9060151
:1004800008910090019002900390059004906946B5
:10049000054800F07FF8044800F082FB0221024882
:1004A00000F007F80BB000BD1C000020704772B6CA
:1004B000FEE790F82020012A07D0022A05D0416AE1
:1004C00041F48021416201207047006842690A437B
:1004D000426100207047F0B590F820500468A4688D
:1004E000012D05D0022D03D0416A41F480214DE059
:1004F00014F0406F01D1E50045D5C4F30164012536
:10050000A5401D608D684FF4C0739DB1CE68354322
:100510004E6845EAC605066803EB0417F5514FF42B
:10052000C275076805EB04150E697E51097D012926
:1005300005D009E00E88CD6845EA4655EBE701682D
:100540004E5946F480764E511179D2F805504FF449
:10055000C67641EA0521056806EB0416A951117813
:10056000D2F801204FF4C47541EA0221026805EB7C
:1005700004155151006803EB0411425842F0010286
:1005800042500020F0BD416A41F400114162012057
:10059000F0BD000010B590F82020012A07D0022AF3
:1005A00005D0416A41F480214162012010BD3B48E1
:1005B000D0F8002242F00102C0F80022D0F8002258
:1005C00022F47C52C0F80022D0F800224B6A42EAA2
:1005D0000322C0F800220A7D02F01F0301229A4084
:1005E000D0F81C329343C0F81C32CB69B3B9D0F8B1
:1005F0000C329343C0F80C328C894B6864F31F4370
:100600004C6900EBC404C4F840320C890B6864F3F5
:100610001F434C6900EBC404C4F84432CB69012B7E
:1006200016D1D0F80C321343C0F80C320C884B684A
:1006300064F31F434C6900EBC404C4F840320C89D6
:10064000CB6864F31F434C6900EBC404C4F8443224
:100650008B69002BD0F804320ED01343C0F804325B
:100660000B69002BD0F8143208D01343C0F81432B1
:10067000096A012904D008E09343EFE79343F5E7C3
:10068000D0F81C121143C0F81C12D0F8001221F04F
:100690000101C0F80012002010BD000000640040FD
:1006A000704770B590F82040012C05D0022C03D083
:1006B000416A41F4802128E0046809B32469A40751
:1006C00020D04FF4D874056804EB01142D5915F0AF
:1006D0000405956005682D591AD0ED085560056828
:1006E0002C5904F00204D4604FF4DA74056804EB6A
:1006F00001142E5906F00F06082E0CD308250DE024
:10070000E468DCE7416A41F400114162012070BDF8
:100710006D0D1560E3E72D5905F00F0515610568AE
:100720002D59C5F30725956105682C59240C546192
:100730004FF4DC72046802EB0112A4581C700468C8
:10074000A458240A5C700468A458240C9C700468A3
:10075000A258120EDA704FF4DE72046802EB011236
:10076000A4581C710468A458240A5C710468A45835
:10077000240C9C710468A258120EDA71006829B129
:10078000016941F020010161002070BDC16841F0A4
:100790002001C160F8E72DE9F05F054600680024FC
:1007A0004669D0F804908768D0F80CB0D0F810A053
:1007B000D0F81880F10748D0F90714D001218160E2
:1007C000B80703D5284600F018FA0CE0780702D5E0
:1007D0004FF4006407E0380702D54FF4805402E07C
:1007E000284600F009FAF80516D529684FF48070FC
:1007F0008860B80503D5284600F001FA0CE07805BA
:1008000002D544F4005407E0380502D544F480448E
:1008100002E0284600F0F2F9F80316D529684FF4F3
:1008200080308860B80303D5284600F0EAF90CE070
:10083000780302D544F4004407E0380302D544F4B9
:10084000803402E0284600F0DBF9300707D55FEA84
:10085000CB6004D52968102044F40074C860700788
:100860004FF0080707D55FEA0B7004D52868C7600A
:10087000284600F057F9B00706D52868C0688007F9
:1008800002D0284600F050F9700607D55FEACA602A
:1008900004D52968102044F480640861B00607D5A7
:1008A0005FEA0A7004D528680761284600F074F9E9
:1008B000F00606D528680069800702D0284600F0B7
:1008C0006CF9B00308D55FEAC96005D52968102026
:1008D0004860284600F062F9F00307D55FEA097026
:1008E00004D528684760284600F08CF9300446D5C6
:1008F0005FEA497040D5F00504D55FEAC87001D0C1
:1009000044F00104B00504D55FEA887001D544F0D5
:100910000204700504D55FEA487001D544F0040470
:10092000300529D518F0700F26D008F07000402847
:1009300015D006DC102809D020280AD0302816D17E
:100940000AE050280ED0602811D10EE044F00804CF
:100950000DE044F010040AE044F0200407E044F005
:10096000400404E044F0800401E044F4807428680A
:10097000816921F070018161296804204860002CA0
:1009800005D0686A204368622846FFF789FEBDE803
:10099000F09F70B5040003D094F8200010B104E07B
:1009A000012070BD204600F081F82068016841F008
:1009B0000101016000F032FA0546052604E000F06E
:1009C0002DFA401B0A2811D820684068C007F6D0CD
:1009D0002068016821F00201016000F01FFA05465D
:1009E0000BE000F01BFA401B0A2806D9606A40F4AD
:1009F0000030606284F82060D2E720684068800799
:100A0000EFD4207E0128206801683DD021F08001CC
:100A10000160607E01282068016838D021F0400123
:100A20000160A07E01282068016833D021F02001F8
:100A30000160E07E0128206801682ED041F010019D
:100A40000160207F01282068016829D021F0080179
:100A50000160607F01282068016824D021F0040132
:100A60000160D4E902010843D4E9041211430843A8
:100A70006168491E08432168C86100206062012046
:100A800084F82000002070BD41F08001C0E741F0F3
:100A90004001C5E741F02001CAE721F01001CFE78E
:100AA00041F00801D4E741F00401D9E710B586B060
:100AB000044614216846FFF74EFC17492068884217
:100AC00027D116480021026842F0007202600068D7
:100AD00000F00070059011481038026842F00802DA
:100AE00002600068022200F0080005900320CDE9B2
:100AF0000210CDE90002092004906946084800F080
:100B000095F800221146152000F0F6F9152000F0A6
:100B1000E5F906B010BD0000006400404038024016
:100B2000000C02407047000000B589B007AB6A4670
:100B30000021FFF7B6FD0098A0F50070013805D040
:100B4000012803D0022801D003281ED100981049A3
:100B5000401EC0B20870042817D20E4900EB800274
:100B600001EB420031F812300381BDF81C305BBA52
:100B700021F81230BDF81E1049BA4180BDF820108E
:100B800049BA81809DF82210817109B000BD000032
:100B900000000020440000207047704770470000AC
:100BA00070B5044690F82000012804D0606A40F433
:100BB0000020606218E0022084F8200020680168AC
:100BC00021F00101016000F029F905460EE000BFA7
:100BD00000F024F9401B0A2808D9606A40F400306C
:100BE0006062052084F82000012070BD2068406804
:100BF000C007EDD1606270BD7047704770477047A5
:100C0000704770477047000070B5044600F006F961
:100C10000546601C02D004480078044400F0FEF849
:100C2000401BA042FAD370BD0C0000202DE9F84F04
:100C3000DFF8BCA10022012503264FF00F090AF1BD
:100C4000040BAAF1040E00BF0B6805FA02F423405E
:100C5000A34270D10F7907F00307012F01D0022FB3
:100C600016D187684FEA420806FA08FC27EA0C0703
:100C7000D1F80CC00CFA08FC4CEA070CC0F808C00C
:100C80004768A7430C79C4F3001494403C43446084
:100C90000C79E443A4070AD0C4684FEA420C06FA70
:100CA0000CF7BC438F6807FA0CF72743C7600C7931
:100CB00004F00304022C12D1D40800EB840CDCF8FD
:100CC00020405707FF0E09FA07F824EA0804D1F874
:100CD000108008FA07F848EA0408CCF82080046875
:100CE0004FEA420C06FA0CF7BC430F7907F00307F2
:100CF00007FA0CF7274307604C6814F4403F70D0A4
:100D00003C4C276847F480472760246822F003079B
:100D100004F480440094384C07EB040CDCF80848D9
:100D200097074FEA177809FA08F7BC43334FB842E0
:100D300002D1002724E054E0314FB84201D101270D
:100D40001EE0304FB84201D1022719E02E4FB842C1
:100D500001D1032714E02D4FB84201D104270FE041
:100D60002B4FB84201D105270AE02A4FB84201D1E2
:100D7000062705E0284FB84201D1072700E00827E1
:100D800007FA08F72743CCF80878DAF80040574606
:100D9000D1F804C09C435FEACC2C00D51C433C60D6
:100DA000DBF800405F46D1F804C09C435FEA8C2C1E
:100DB00000D51C433C60DEF800407746D1F804C003
:100DC0009C435FEA8C3C00D51C433C60084F083FC5
:100DD0003C68D1F804C09C435FEACC3C00D51C437E
:100DE0003C60521C102AFFF42FAFBDE8F88F0000C2
:100DF000083C0140443802400030014000000240FD
:100E00000004024000080240000C024000100240B2
:100E10000014024000180240001C02400148806893
:100E2000704700000C0000200248816802781144DD
:100E3000816070470C0000200B4810B5016841F438
:100E400000710160016841F480610160016841F452
:100E500080710160032000F06FF80F2000F006F8A9
:100E600000F024F8002010BD003C024070B50D4D8C
:100E700004464FF47A712878B1FBF0F00A4909680A
:100E8000B1FBF0F000F0ECFA48B9102C07D20022C8
:100E90002146501E00F030F800206C6070BD01202B
:100EA00070BD00000C000020180000200A4808B5A2
:100EB000016841F480410160006800F480400090C6
:100EC0000548001F016841F080510160006800F092
:100ED0008050009008BD000044380240002809DB23
:100EE00000F01F02012191404009800000F1E02044
:100EF000C0F8001170470000F0B40E4B1B680C46A0
:100F0000C3F30223C3F10705042D00D90425191DDD
:100F1000072901D2002300E0DB1E012606FA05F1B5
:100F2000491E214099409E40761E16403143F0BC38
:100F300000F045BB0CED00E0064900F00702086830
:100F40004FF6FF03184040EA0220034A10430860AE
:100F5000704700000CED00E00000FA052DE9F047B5
:100F60000E46050065D0DFF81481D8F80000F7B20E
:100F700000F00700B04207D288F80070D8F80000EF
:100F800000F00700B04254D128683D4C810712D5CB
:100F9000400703D5206840F4E0502060287800071F
:100FA00003D5206840F4604020602068A96820F0E4
:100FB000F000084320602878C0072DD030496868C9
:100FC0000839012812D0022813D0032811D009684B
:100FD000890700292DDA216821F0030101432160EE
:100FE000FFF71CFF814641F2883A0EE00968890349
:100FF000EFE709688901ECE7FFF710FFA0EB0901B3
:10100000514502D90320BDE8F0872068696800F0E7
:101010000C00B0EB810FEFD1D8F80010404601F082
:101020000701B14207D90770006800F00700B0421D
:1010300001D00120E7E72878400705D52068E96856
:1010400020F4E050084320602878000706D5206887
:10105000296920F4604040EAC100206000F018F8DF
:101060002168084AC1F30311515CC8400649086071
:1010700006480068FFF7FAFE0020C4E7003C024083
:10108000083802402C16000818000020100000202C
:10109000154810B5006810F00C02144813D014491C
:1010A000042A0FD0082A0ED10F4C241F226823686F
:1010B00002F03F025B0207D52068C0F38810A0FB56
:1010C000010106E0084610BD2168C1F38811A1FBAB
:1010D00000010023FFF7C8F82168C1F30141491C52
:1010E0004900B0FBF1F010BD083802400024F400C4
:1010F00040787D012DE9F84F04006ED02078DFF8AC
:101100004C93C007A9F104054AD009F10400016815
:10111000C1F38101012908D00068C0F381000228D1
:101120000AD1D9F80000400206D52868800337D5D7
:1011300060680028E1D033E06068B0F5803F10D0EF
:10114000B0F5A02F286810D020F4803028602868DF
:1011500020F4802028606068A8B1FFF75FFE064693
:101160000DE0286840F48030F4E740F480202860E7
:10117000F7E700BFFFF752FE801B642873D828688A
:101180008003F7D50CE0FFF749FE064605E000BFF7
:10119000FFF744FE801B6428F0D828688003F7D44A
:1011A0002078DFF8AC8280074FF0000A3ED5A748D0
:1011B000001D016811F00C0F08D00068C0F3810019
:1011C00002280BD1D9F80000400207D42868800714
:1011D00016D5E068012800D112E033E1E068B8B12B
:1011E0000120C8F80000FFF719FE064605E000BF21
:1011F000FFF714FE801B0228C0D828688007F7D5A7
:101200002868216920F0F80040EAC10028600DE05C
:10121000C8F800A0FFF702FE064604E0FFF7FEFD57
:10122000801B02281FD828688007F7D42078000781
:1012300022D5864F87486169703771B101210160FD
:10124000FFF7ECFD064604E0FFF7E8FD801B0228EF
:1012500009D838688007F7D50EE0C0F800A0FFF77E
:10126000DDFD064605E082E0FFF7D8FD801B022881
:101270007DD838688007F7D42078400768D5DFF834
:10128000CCB100270BF13C0BDBF80000C0000BD405
:10129000DBF8001041F08051CBF80010DBF80000C3
:1012A000012700F0805000906B4E3068C00510D4CC
:1012B000306840F480703060FFF7B0FD009005E0CA
:1012C000FFF7ACFD0099401A022850D83068C005DD
:1012D000F6D55E4EA0686C3601280FD00528306820
:1012E00010D020F001003060306820F00400306041
:1012F000A068B8B1FFF792FD00900FE0306840F0B1
:101300000100F4E740F004003060F7E7FFF786FDE6
:101310000099411A41F28830814266D830688007CE
:10132000F4D50EE0FFF77AFD009007E0FFF776FDB9
:101330000099411A41F28830814256D830688007BE
:10134000F4D42FB1DBF8001021F08051CBF800105D
:10135000A069C8B33D49091D0968C1F3810102298B
:101360004AD00228504607D0C8F8600000E03CE0B0
:10137000FFF754FD04463BE04746C8F86000FFF71E
:101380004DFD064605E000BFFFF748FD801B022823
:101390002BD828688001F7D4D4E907010843A16A53
:1013A0002E4A490802EB0141626A41EA8211084370
:1013B00094F82C1040EA0161C9F800100120386649
:1013C000FFF72CFD044606E03EE000BFFFF726FDD8
:1013D000001B022809D828688001F7D534E000BF37
:1013E000FFF71CFD001B022802D90320BDE8F88F7F
:1013F00028688001F4D427E00128F7D0D9F800004C
:10140000E26900F4800191421CD1226A00F03F01A0
:10141000914217D147F6C071626A0140B1EB821F59
:1014200010D1A26A4FF0FF3300F4403103EB5202B7
:10143000B1EB024F06D194F82C1000F07060B0EBC5
:10144000016F01D00120D1E70020CFE7043802402E
:1014500000004742800E4742007000400000FFFF3E
:1014600010B5401EB0F1807F01D3012010BD4FF0B8
:10147000E02460610F21601700F0A1F80020A06156
:1014800007202061002010BDFEE700000F4810B5C6
:101490000D4901600321416000214FF41022816059
:1014A000C0E903124FF40012426101764176817661
:1014B000C17601774177FFF76CFA002803D0BDE8C9
:1014C0001040FEF7F4BF10BD006400401C00002077
:1014D0000D4808B5016841F001010160016801F0A3
:1014E00001010091016841F008010160016801F00B
:1014F00008010091016841F080010160006800F07E
:101500008000009008BD000030380240FEE7FEE792
:1015100070477047FFF788BC30B593B030216846FC
:10152000FEF719FF14210CA8FEF715FF1D48002532
:10153000016841F080510160006800F08050119016
:101540001948016841F4804101600068022400F4F8
:101550008040119001200390102004900094069484
:101560000820CDE90750A820CDE9090404200B90FC
:101570006846FFF7BFFD08B172B6FEE70CA90F2061
:1015800081E831004FF4A0500F904FF4805010903C
:1015900005210CA8FFF7E2FC002801D072B6FEE797
:1015A00013B030BD4038024000700040024801686E
:1015B00041F470010160704788ED00E0FEE7090723
:1015C000090E002804DB00F1E02080F800147047C9
:1015D00000F00F0000F1E02080F8141D7047FFF7C5
:1015E0002BFCFFF799FFFFF773FFFFF74FFFFEF7A5
:1015F00041FF4FF480554FF47A746E102B461A4613
:1016000028461146FEF712FF2046FFF7FDFA334643
:101610001A4630461146FEF709FF2046FFF7F4FA56
:10162000ECE74FF04070E1EE100A70470000000058
:101630000000000001020304060708095C16000808
:10164000000000201C000000C401000878160008FB
:101650001C000020CC060000E00100080000000093
:101660000000000000000000010000001000000069
:08167000000000000024F4005A
:040000050800018965
:00000001FF
