:020000040800F2
:10000000B0090020290200083325000871230008E8
:10001000312500084F050008A52E0008000000004B
:10002000000000000000000000000000D1280008CF
:10003000F506000800000000AD260008D3280008DF
:10004000430200084302000843020008430200087C
:10005000430200084302000843020008430200086C
:10006000430200084302000843020008430200085C
:100070004506000843020008430200084302000846
:10008000430200084302000843020008430200083C
:10009000510500084302000843020008430200081B
:1000A000430200084302000843020008430200081C
:1000B0007D290008430200084302000843020008AB
:1000C00043020008430200084302000843020008FC
:1000D000430200084302000843020008992E00086A
:1000E00043020008430200084302000843020008DC
:1000F00043020008430200084302000843020008CC
:1001000043020008430200084302000843020008BB
:1001100043020008430200084302000843020008AB
:10012000430200084302000843020008430200089B
:10013000430200084302000843020008430200088B
:100140005D0500084302000843020008430200085E
:10015000430200084302000843020008430200086B
:10016000430200084302000843020008430200085B
:100170004302000843020008430200080000000098
:10018000430200084302000800F002F800F03CF8C7
:100190000AA090E8000C82448344AAF10107DA45E2
:1001A00001D100F031F8AFF2090EBAE80F0013F0F8
:1001B000010F18BFFB1A43F001031847042E00007B
:1001C000242E0000103A24BF78C878C1FAD852070C
:1001D00024BF30C830C144BF04680C6070470000C1
:1001E0000023002400250026103A28BF78C1FBD840
:1001F000520728BF30C148BF0B6070471FB502F0DF
:10020000C9FE1FBD10B510BD00F068F91146FFF71B
:10021000F5FF02F059FE00F086F903B4FFF7F2FF94
:1002200003BC00F08DF900000948804709480047E9
:10023000FEE7FEE7FEE7FEE7FEE7FEE7FEE7FEE796
:10024000FEE7FEE704480549054A064B70470000F3
:100250006D29000889010008B0030020B0090020C2
:10026000B0050020B005002053EA020C00F06980C0
:100270002DE9F04B4FF00006002B1FBFB3FA83F5BA
:1002800003FA05F424FA05F65E4012BF1643B2FAEB
:1002900082F502FA05F4C5F120051EBF22FA05FC1D
:1002A00044EA0C04203556EA044C4FEA144418BFC3
:1002B000641C4FF000084FF00009904271EB030CF2
:1002C00039D3002919BFB1FA81F701FA07F6B0FA5C
:1002D00080F700FA07F6C7F120071EBF20FA07FCD7
:1002E00046EA0C062037B6FBF4FCA7EB0507103FE7
:1002F00007F01F0BCBF120060CFA0BFB2CFA06F6CD
:1003000044BFB3460026202FA4BF5E464FF0000B2B
:100310005BEA060C08BF4FF0010B19EB0B09ABFBB6
:10032000027C48EB0608C01B06FB02CC0BFB03CC8F
:1003300071EB0C01C1E70B46024641464846BDE859
:10034000F08B13B54FF000004FF00001AFF30080C9
:10035000BDE81C407047032A40F2308010F0030CC7
:1003600000F0158011F8013BBCF1020F624498BF08
:1003700011F801CB00F8013B38BF11F8013BA2F1A5
:10038000040298BF00F801CB38BF00F8013B11F020
:10039000030300F07180083AC0F0088051F8043B74
:1003A000083A51F804CBA0E80810F5E7121D5CBF2D
:1003B00051F8043B40F8043BAFF30080D20724BF60
:1003C00011F8013B11F801CB48BF11F8012B24BFF4
:1003D00000F8013B00F801CB48BF00F8012B704743
:1003E0004FF000020429C0F0128010F0030C00F05E
:1003F0001B80CCF1040CBCF1020F18BF00F8012BDC
:10040000A8BF20F8022BA1EB0C0100F00DB85FEAA9
:10041000C17C24BF00F8012B00F8012B48BF00F875
:10042000012B70474FF0000200B5134694469646E4
:10043000203922BFA0E80C50A0E80C50B1F12001F7
:10044000BFF4F7AF090728BFA0E80C5048BF0CC0A5
:100450005DF804EB890028BF40F8042B08BF704703
:1004600048BF20F8022B11F0804F18BF00F8012B75
:10047000704770477047704710B5203AC0F00B8046
:10048000B1E81850203AA0E81850B1E81850A0E898
:100490001850BFF4F5AF5FEA027C24BFB1E81850F2
:1004A000A0E8185044BF18C918C0BDE810405FEA62
:1004B000827C24BF51F8043B40F8043B08BF7047DE
:1004C000D20728BF31F8023B48BF11F8012B28BFE3
:1004D00020F8023B48BF00F8012B7047754600F03A
:1004E0002BF8AE4605006946534620F007008546C6
:1004F00018B020B5FFF7A6FEBDE820404FF000067B
:100500004FF000074FF000084FF0000B21F00701FB
:10051000AC46ACE8C009ACE8C009ACE8C009ACE83E
:10052000C0098D46704710B50446AFF300802046E1
:10053000BDE81040FFF771BE00487047500300202F
:1005400001491820ABBEFEE7260002007047FEE717
:10055000014800F044BA000010020020014800F0F9
:100560003EBA00003802002038B50E4C4FF400753A
:1005700025600025A560E560082525610A4C050A6F
:1005800025706070080AA070E170100A2071627115
:10059000180AA071E3716B4622460249034800F035
:1005A000BEF838BD400000200100002010020020ED
:1005B00008B50C4A40F2FF11082311600021916038
:1005C000C2E90313084A030A137050709170D17086
:1005D000117151719171D1716B460249034800F05C
:1005E0009EF808BD400000200900002038020020CD
:1005F00000B58BB000200121CDE9060108910090E3
:100600000190029003900590049069460B4800F019
:10061000E5F80A4800F03AFC0221084800F06DF8BD
:100620006946074800F0DAF8054800F02FFC02217F
:10063000034800F062F80BB000BD0000100200207B
:1006400038020020014800F0AFBC0000F00200209A
:1006500001681823CAB2103AB2FBF3F2054B6FF3EC
:100660000901032A9B5CC36500D9091D8165084601
:10067000704700009E2F000810B5014600208B69CE
:100680008A6A4FF0C07453B1B3F5005F15D072B1F0
:10069000012A0CD0022A0AD0032A09D104E01AB197
:1006A000012A06D0022A03D1C96AC90100D5012056
:1006B00010BDC96AA142FAD010BD002AF7D0012AA4
:1006C000F2D0022AF3D0032AF3D010BD30B504686B
:1006D000256825F480252560046863608368402BC5
:1006E000036803D099600068C26030BD9A600068FA
:1006F000C16030BD704772B6FEE790F82020012A35
:1007000007D0022A05D0416A41F4802141620120CC
:100710007047006842690A43426100207047F0B5A3
:1007200090F820500468A468012D05D0022D03D054
:10073000416A41F480214DE014F0406F01D1E500A1
:1007400045D5C4F301640125A5401D608D684FF4B3
:10075000C0739DB1CE6835434E6845EAC60506684C
:1007600003EB0417F5514FF4C275076805EB041548
:100770000E697E51097D012905D009E00E88CD68FA
:1007800045EA4655EBE701684E5946F480764E51EE
:100790001179D2F805504FF4C67641EA0521056873
:1007A00006EB0416A9511178D2F801204FF4C47554
:1007B00041EA0221026805EB04155151006803EB80
:1007C0000411425842F0010242500020F0BD416A3B
:1007D00041F4001141620120F0BD000010B590F815
:1007E0002020012A07D0022A05D0416A41F4802145
:1007F0004162012010BD3B48D0F8002242F00102C6
:10080000C0F80022D0F8002222F47C52C0F8002266
:10081000D0F800224B6A42EA0322C0F800220A7D87
:1008200002F01F0301229A40D0F81C329343C0F813
:100830001C32CB69B3B9D0F80C329343C0F80C32F8
:100840008C894B6864F31F434C6900EBC404C4F803
:1008500040320C890B6864F31F434C6900EBC404FD
:10086000C4F84432CB69012B16D1D0F80C321343B3
:10087000C0F80C320C884B6864F31F434C6900EBE2
:10088000C404C4F840320C89CB6864F31F434C693C
:1008900000EBC404C4F844328B69002BD0F8043256
:1008A0000ED01343C0F804320B69002BD0F8143279
:1008B00008D01343C0F81432096A012904D008E0B3
:1008C0009343EFE79343F5E7D0F81C121143C0F8C8
:1008D0001C12D0F8001221F00101C0F80012002013
:1008E00010BD000000640040704770B590F82040D3
:1008F000012C05D0022C03D0416A41F4802128E06C
:10090000046809B32469A40720D04FF4D87405689B
:1009100004EB01142D5915F00405956005682D5957
:100920001AD0ED08556005682C5904F00204D46013
:100930004FF4DA74056804EB01142E5906F00F0623
:10094000082E0CD308250DE0E468DCE7416A41F489
:1009500000114162012070BD6D0D1560E3E72D5956
:1009600005F00F05156105682D59C5F3072595613B
:1009700005682C59240C54614FF4DC72046802EBB6
:100980000112A4581C700468A458240A5C700468FE
:10099000A458240C9C700468A258120EDA704FF40C
:1009A000DE72046802EB0112A4581C710468A4589A
:1009B000240A5C710468A458240C9C710468A25831
:1009C000120EDA71006829B1016941F0200101615C
:1009D000002070BDC16841F02001C160F8E72DE939
:1009E000F05F0546006800244669D0F804908768E7
:1009F000D0F80CB0D0F810A0D0F81880F10748D08B
:100A0000F90714D001218160B80703D5284600F00A
:100A10006AFA0CE0780702D54FF4006407E0380763
:100A200002D54FF4805402E0284600F05BFAF80546
:100A300016D529684FF480708860B80503D528461C
:100A400000F053FA0CE0780502D544F4005407E0B6
:100A5000380502D544F4804402E0284600F044FA08
:100A6000F80316D529684FF480308860B80303D5A1
:100A7000284600F03CFA0CE0780302D544F4004428
:100A800007E0380302D544F4803402E0284600F041
:100A90002DFA300707D55FEACB6004D5296810200E
:100AA00044F40074C86070074FF0080707D55FEA88
:100AB0000B7004D52868C760284600F099F9B00784
:100AC00006D52868C068800702D0284600F092F951
:100AD000700607D55FEACA6004D52968102044F47F
:100AE00080640861B00607D55FEA0A7004D52868FB
:100AF0000761284600F0C6F9F00606D528680069A7
:100B0000800702D0284600F0BEF9B00308D55FEA9E
:100B1000C96005D5296810204860284600F0B4F95E
:100B2000F00307D55FEA097004D5286847602846B6
:100B300000F0DEF9300446D55FEA497040D5F00593
:100B400004D55FEAC87001D044F00104B00504D5B3
:100B50005FEA887001D544F00204700504D55FEAAD
:100B6000487001D544F00404300529D518F0700F01
:100B700026D008F07000402815D006DC102809D0D7
:100B800020280AD0302816D10AE050280ED060283C
:100B900011D10EE044F008040DE044F010040AE026
:100BA00044F0200407E044F0400404E044F08004F2
:100BB00001E044F480742868816921F0700181614A
:100BC000296804204860002C05D0686A20436862C8
:100BD0002846FFF789FEBDE8F09F70B5040003D0FA
:100BE00094F8200010B104E0012070BD204600F010
:100BF00081F82068016841F00101016000F03EFCCD
:100C00000546052604E000F039FC401B0A2811D8EF
:100C100020684068C007F6D02068016821F0020112
:100C2000016000F02BFC05460BE000F027FC401BA8
:100C30000A2806D9606A40F40030606284F82060B7
:100C4000D2E7206840688007EFD4207E0128206822
:100C500001683DD021F080010160607E012820689C
:100C6000016838D021F040010160A07E0128206891
:100C7000016833D021F020010160E07E0128206866
:100C800001682ED041F010010160207F012820680A
:100C9000016829D021F008010160607F01282068E7
:100CA000016824D021F004010160D4E90201084365
:100CB000D4E90412114308436168491E08432168BE
:100CC000C86100206062012084F82000002070BD0F
:100CD00041F08001C0E741F04001C5E741F020014B
:100CE000CAE721F01001CFE741F00801D4E741F055
:100CF0000401D9E7F0B587B0044614216846FFF730
:100D000091FB364B3648DFF8D0E01968D4F800C0C4
:100D1000334A03250226092710300024491CF445D4
:100D200022D11960012907D1016841F000710160E9
:100D3000006800F000700590106840F00800106036
:100D40001068CDE9005600F00800CDE9047069464E
:100D50002448CDE9024500F099FA002211461420FA
:100D600000F0FAFB142032E0DFF87CE0F44530D1EB
:100D7000D0F800C04CF0806CC0F800C0D0F800C0C3
:100D800001290CF0806CCDF814C0196007D10168FE
:100D900041F000710160006800F00070059010687B
:100DA00040F002001060106802AB00F002000590F5
:100DB0006020CDE9000683E8B00069460B4800F0EA
:100DC00065FA00221146402000F0C6FB402000F0EA
:100DD000B5FB07B0F0BD0000006400402C0000200F
:100DE00030380240000C024000680040000402401D
:100DF0007047000000B58BB001AB03AA0021FFF7DC
:100E000074FD03981C49A0F2012004281BD81B4A3A
:100E1000C0B20528107016D200EB800201EB420030
:100E200031F812300381BDF804305BBA21F812307A
:100E3000BDF8062052BA4280BDF8082052BA82801E
:100E40009DF80A2082710E4A002000BF00EB80034B
:100E500001EB4303B3F9023000EE103AC0EB00138C
:100E600002EB8303B8EEC00A401C032883ED0A0A94
:100E7000ECDD0BB000BD0000580000200000002099
:100E80008C000020704770477047000070B5044622
:100E900090F82000012804D0606A40F400206062CD
:100EA00018E0022084F820002068016821F0010188
:100EB000016000F0E3FA05460EE000BF00F0DEFA44
:100EC000401B0A2808D9606A40F40030606205209F
:100ED00084F82000012070BD20684068C007EDD173
:100EE000606270BD704770477047704770477047C9
:100EF00070472DE9F0410446876D00F0BFFA0646C1
:100F000094F835000025022806D08020606584F81A
:100F100034500120BDE8F0812068016821F01601FD
:100F200001602068416921F080014161206C08B9AD
:100F3000A06C20B12068016821F0080101602068E0
:100F4000016821F0010101600CE000F097FA801BBC
:100F5000052807D920206065032084F8350084F82F
:100F60003450D7E720680068C007EED194F85C10D1
:100F70003F208840B860012084F8350084F8345060
:100F80000020C7E790F83510022903D08021416581
:100F900001207047052180F835100068016821F0B4
:100FA00001010160002070472DE9F84304464FF02D
:100FB0000009CDF8009063484FF41651A56D006804
:100FC000B0FBF1F72E6894F85C10082000FA01F1EC
:100FD00031420FD021680A6852070BD50A6822F007
:100FE00004020A6094F85C108840A860606D40F0CC
:100FF0000100606594F85C104FF0010808FA01F0F8
:10100000304208D021684969090604D5A860606D9E
:1010100040F00200606594F85C1004208840304283
:1010200008D021680968890704D5A860606D40F080
:101030000400606594F85C1010208840304218D09D
:1010400021680968090714D5A86020680168490368
:1010500004D50068000308D5A16C07E00168C90544
:1010600003D4016821F008010160216C09B1204618
:10107000884794F85C1020208840304231D02168A5
:101080000968C9062DD5A86094F8350005282068A0
:10109000016806D0490347D5006800031DD4616C80
:1010A0001CE021F0160101602068416921F08001F7
:1010B0004161206C08B9A06C20B12068016821F062
:1010C0000801016094F85C103F208840A86084F813
:1010D000358084F83490216D1FE0E16B09B1204622
:1010E0008847606D00282BD0606DC00714D00520A4
:1010F00084F835002068016821F001010160009842
:10110000401C0090B84203D820680068C007F6D1A0
:1011100084F8358084F83490E16C002910D001B057
:101120002046BDE8F04308470168C905D5D40168E9
:1011300021F01001016084F8358084F83490CCE708
:10114000BDE8F8833C0000202DE9F041044600F0A2
:1011500095F906465CB1022084F83500002584F834
:1011600034502068016821F0010101600DE0012088
:10117000BDE8F08100F082F9801B052805D9202008
:101180006065032084F83500F2E720680068C00736
:10119000F0D12268116820480140D4E901031843C6
:1011A000D4E903363343184363691843A3691843EA
:1011B000E3691843236A18430843616A042903D189
:1011C000D4E90B1319430843106020684069666A2C
:1011D00020F0070130460E43012704280CD1A06AF5
:1011E0000643E06A40B12046FFF746FA20B14020AE
:1011F000606584F83570BAE7206846612046FFF7DD
:1012000027FA94F85C203F2191408160656584F85D
:1012100035700020ACE700003F8010F02DE9F04170
:101220000446866D90F83400002501280DD0012079
:1012300084F8340094F835700020012F07D084F82A
:10124000340002252846BDE8F0810220FBE7022792
:1012500084F8357060652046FFF738FA94F85C1022
:101260003F208840B0602068016841F016010160AD
:10127000206C20B12068016841F0080101602068FD
:10128000016841F001010160DCE700002DE9F84F41
:10129000DFF8BCA10022012503264FF00F090AF157
:1012A000040BAAF1040E00BF0B6805FA02F42340F8
:1012B000A34270D10F7907F00307012F01D0022F4D
:1012C00016D187684FEA420806FA08FC27EA0C079D
:1012D000D1F80CC00CFA08FC4CEA070CC0F808C0A6
:1012E0004768A7430C79C4F3001494403C4344601E
:1012F0000C79E443A4070AD0C4684FEA420C06FA0A
:101300000CF7BC438F6807FA0CF72743C7600C79CA
:1013100004F00304022C12D1D40800EB840CDCF896
:1013200020405707FF0E09FA07F824EA0804D1F80D
:10133000108008FA07F848EA0408CCF8208004680E
:101340004FEA420C06FA0CF7BC430F7907F003078B
:1013500007FA0CF7274307604C6814F4403F70D03D
:101360003C4C276847F480472760246822F0030735
:1013700004F480440094384C07EB040CDCF8084873
:1013800097074FEA177809FA08F7BC43334FB8427A
:1013900002D1002724E054E0314FB84201D10127A7
:1013A0001EE0304FB84201D1022719E02E4FB8425B
:1013B00001D1032714E02D4FB84201D104270FE0DB
:1013C0002B4FB84201D105270AE02A4FB84201D17C
:1013D000062705E0284FB84201D1072700E008277B
:1013E00007FA08F72743CCF80878DAF800405746A0
:1013F000D1F804C09C435FEACC2C00D51C433C6070
:10140000DBF800405F46D1F804C09C435FEA8C2CB7
:1014100000D51C433C60DEF800407746D1F804C09C
:101420009C435FEA8C3C00D51C433C60084F083F5E
:101430003C68D1F804C09C435FEACC3C00D51C4317
:101440003C60521C102AFFF42FAFBDE8F88F00005B
:10145000083C014044380240003001400000024096
:101460000004024000080240000C0240001002404C
:101470000014024000180240001C0240014880682D
:101480007047000030000020024881680278114453
:1014900081607047300000200B4810B5016841F4AE
:1014A00000710160016841F480610160016841F4EC
:1014B00080710160032000F06FF80F2000F006F843
:1014C00000F024F8002010BD003C024070B50D4D26
:1014D00004464FF47A712878B1FBF0F00A490968A4
:1014E000B1FBF0F000F00CFB48B9102C07D2002241
:1014F0002146501E00F030F800206C6070BD0120C5
:1015000070BD0000300000203C0000200A4808B5F3
:10151000016841F480410160006800F4804000905F
:101520000548001F016841F080510160006800F02B
:101530008050009008BD000044380240002809DBBC
:1015400000F01F02012191404009800000F1E020DD
:10155000C0F8001170470000F0B40E4B1B680C4639
:10156000C3F30223C3F10705042D00D90425191D77
:10157000072901D2002300E0DB1E012606FA05F14F
:10158000491E214099409E40761E16403143F0BCD2
:1015900001F089BC0CED00E0064900F00702086884
:1015A0004FF6FF03184040EA0220034A1043086048
:1015B000704700000CED00E00000FA052DE9F0474F
:1015C0000E46050065D0DFF81481D8F80000F7B2A8
:1015D00000F00700B04207D288F80070D8F8000089
:1015E00000F00700B04254D128683D4C810712D565
:1015F000400703D5206840F4E050206028780007B9
:1016000003D5206840F4604020602068A96820F07D
:10161000F000084320602878C0072DD03049686862
:101620000839012812D0022813D0032811D00968E4
:10163000890700292DDA216821F003010143216087
:10164000FFF71CFF814641F2883A0EE009688903E2
:10165000EFE709688901ECE7FFF710FFA0EB09014C
:10166000514502D90320BDE8F0872068696800F081
:101670000C00B0EB810FEFD1D8F80010404601F01C
:101680000701B14207D90770006800F00700B042B7
:1016900001D00120E7E72878400705D52068E968F0
:1016A00020F4E050084320602878000706D5206821
:1016B000296920F4604040EAC100206000F038F859
:1016C0002168084AC1F30311515CC840064908600B
:1016D00006480068FFF7FAFE0020C4E7003C02401D
:1016E00008380240A62F00083C00002034000020EB
:1016F0000448054900680968044AC1F38221515C25
:10170000C84070473C00002008380240B62F00084F
:101710000448054900680968044AC1F34231515C34
:10172000C84070473C00002008380240B62F00082F
:10173000154810B5006810F00C02144813D0144975
:10174000042A0FD0082A0ED10F4C241F22682368C8
:1017500002F03F025B0207D52068C0F38810A0FBAF
:10176000010106E0084610BD2168C1F38811A1FB04
:1017700000010023FEF778FD2168C1F30141491CF7
:101780004900B0FBF1F010BD083802400024F4001D
:1017900040787D012DE9F84F04006ED02078DFF805
:1017A0004C93C007A9F104054AD009F1040001686F
:1017B000C1F38101012908D00068C0F3810002282B
:1017C0000AD1D9F80000400206D52868800337D531
:1017D00060680028E1D033E06068B0F5803F10D049
:1017E000B0F5A02F286810D020F480302860286839
:1017F00020F4802028606068A8B1FFF73FFE06460D
:101800000DE0286840F48030F4E740F48020286040
:10181000F7E700BFFFF732FE801B642873D8286803
:101820008003F7D50CE0FFF729FE064605E000BF70
:10183000FFF724FE801B6428F0D828688003F7D4C3
:101840002078DFF8AC8280074FF0000A3ED5A74829
:10185000001D016811F00C0F08D00068C0F3810072
:1018600002280BD1D9F80000400207D4286880076D
:1018700016D5E068012800D112E033E1E068B8B184
:101880000120C8F80000FFF7F9FD064605E000BF9B
:10189000FFF7F4FD801B0228C0D828688007F7D521
:1018A0002868216920F0F80040EAC10028600DE0B6
:1018B000C8F800A0FFF7E2FD064604E0FFF7DEFDF2
:1018C000801B02281FD828688007F7D420780007DB
:1018D00022D5864F87486169703771B10121016057
:1018E000FFF7CCFD064604E0FFF7C8FD801B022889
:1018F00009D838688007F7D50EE0C0F800A0FFF7D8
:10190000BDFD064605E082E0FFF7B8FD801B02281A
:101910007DD838688007F7D42078400768D5DFF88D
:10192000CCB100270BF13C0BDBF80000C0000BD45E
:10193000DBF8001041F08051CBF80010DBF800001C
:10194000012700F0805000906B4E3068C00510D425
:10195000306840F480703060FFF790FD009005E043
:10196000FFF78CFD0099401A022850D83068C00556
:10197000F6D55E4EA0686C3601280FD00528306879
:1019800010D020F001003060306820F0040030609A
:10199000A068B8B1FFF772FD00900FE0306840F02A
:1019A0000100F4E740F004003060F7E7FFF766FD60
:1019B0000099411A41F28830814266D83068800728
:1019C000F4D50EE0FFF75AFD009007E0FFF756FD53
:1019D0000099411A41F28830814256D83068800718
:1019E000F4D42FB1DBF8001021F08051CBF80010B7
:1019F000A069C8B33D49091D0968C1F381010229E5
:101A00004AD00228504607D0C8F8600000E03CE009
:101A1000FFF734FD04463BE04746C8F86000FFF797
:101A20002DFD064605E000BFFFF728FD801B0228BC
:101A30002BD828688001F7D4D4E907010843A16AAC
:101A40002E4A490802EB0141626A41EA82110843C9
:101A500094F82C1040EA0161C9F8001001203866A2
:101A6000FFF70CFD044606E03EE000BFFFF706FD71
:101A7000001B022809D828688001F7D534E000BF90
:101A8000FFF7FCFC001B022802D90320BDE8F88FF9
:101A900028688001F4D427E00128F7D0D9F80000A5
:101AA000E26900F4800191421CD1226A00F03F01FA
:101AB000914217D147F6C071626A0140B1EB821FB3
:101AC00010D1A26A4FF0FF3300F4403103EB520211
:101AD000B1EB024F06D194F82C1000F07060B0EB1F
:101AE000016F01D00120D1E70020CFE70438024088
:101AF00000004742800E4742007000400000FFFF98
:101B000010B5401EB0F1807F01D3012010BD4FF011
:101B1000E02460610F21601701F0C5F90020A06189
:101B200007202061002010BD7047704770B590F805
:101B30003C20012A32D0012480F83C40022280F867
:101B40003D2003685A689D6822F070060A68324397
:101B50005A60134B02689A4214D0B2F1804F11D0F0
:101B6000104B9A420ED0104B9A420BD00F4B9A4218
:101B700008D00F4B9A4205D00E4B9A4202D00E4B22
:101B80009A4204D1496825F080031943916080F896
:101B90003D40002180F83C10084670BD022070BD19
:101BA000000001400004004000080040000C00401C
:101BB00000040140004001400018004010B504003E
:101BC00003D094F83D0010B107E0012010BD0020C3
:101BD00084F83C00204600F01FF8022084F83D0005
:101BE000211D206800F0D0FE012084F8460084F812
:101BF0003E0084F83F0084F8400084F8410084F8F7
:101C0000420084F8430084F8440084F8450084F8D6
:101C10003D00002010BD000008B50068B0F1804F05
:101C200012D10A48016841F00101016000680022F8
:101C300000F00100009011461C20FFF78DFCBDE86C
:101C400008401C20FFF77ABC08BD00004038024065
:101C500090F83D10012901D001207047022180F841
:101C60003D100168CA6842F00102CA60006811496B
:101C7000884214D0B0F1804F11D00F4988420ED065
:101C80000E4988420BD00E49884208D00D4988423F
:101C900005D00D49884202D00C49884204D18168A0
:101CA00001F00701062903D0016841F0010101603C
:101CB0000020704700000140000400400008004080
:101CC000000C0040000401400040014000180040AA
:101CD00070B5044690F83C000025012817D0012675
:101CE00084F83C60022084F83D002068826822F07D
:101CF000770222F47F4282600868502838D00DDCD9
:101D000020284FD005DC90B3102811D14AE00220E2
:101D100070BD302846D040280AD13BE060282FD043
:101D200070280DD0B0F5805F03D0B0F5005F12D001
:101D3000012584F83D60002084F83C00284670BDF1
:101D4000CB68D1E90121206800F086FE2068816817
:101D500041F0770109E0CB68D1E90121206800F06A
:101D60007BFE2068816841F480418160E1E719E0F1
:101D7000CA684968206800F081FE5021206806E0AA
:101D8000CA684968206800F08AFE6021206800F077
:101D90006DFECEE7CA684968206800F06FFE4021FA
:101DA0002068F4E7226801461046F0E770472DE905
:101DB000F04104460068C66805694FF00007A907AE
:101DC00013D5B10711D5F91E0161012020772068D4
:101DD00080698007204602D0FFF7E8FF04E000F0AA
:101DE0007EF8204600F07CF82777680716D5700744
:101DF00014D521686FF00400086102202077206864
:101E0000806910F4407F204602D0FFF7CFFF04E046
:101E100000F065F8204600F063F82777280715D50D
:101E2000300713D521686FF008000861042020777F
:101E30002068C0698007204602D0FFF7B7FF04E0A2
:101E400000F04DF8204600F04BF82777E80616D54D
:101E5000F00614D521686FF0100008610820207783
:101E60002068C06910F4407F204602D0FFF79EFF33
:101E700004E000F034F8204600F032F82777E80755
:101E800008D0F00706D021686FF0010008612046F5
:101E900000F028F8280608D5300606D521686FF02E
:101EA000800008612046FFF73FFE680608D57006EF
:101EB00006D521686FF040000861204600F06CF8FC
:101EC000A8060AD5B00608D521686FF02000086181
:101ED0002046BDE8F041FFF728BEBDE8F08170471D
:101EE000704700002DE9F0410021274D0A462DEDF5
:101EF000028B00BF25F81120491C0329FADD224E70
:101F0000B61E32800068B0F1804F39D100F0D0FBAE
:101F10001E4F9FED1F8A0024C4EB041007EB8000C6
:101F2000B0EE481AD0ED0A0A90ED090A00F002FB63
:101F3000BDEEC00A10EE100A25F81400641C032C34
:101F4000EADDB5F90630B5F90420B5F90210B5F9A6
:101F50000000FEF709FB0F48B0EE481AD0ED0A0A60
:101F600090ED090A00F0E6FABDEEC00A10EE100A84
:101F700000B23080BDEC028BBDE8F041FEF718BB2B
:101F8000BDEC028BBDE8F081220000208C00002017
:101F90006F12833A7C010020704770477047000041
:101FA000F8B5016804460868CA684B6910F00F0F5D
:101FB0004FF0000559D003F0010602F49077374343
:101FC00065D0C10705D0D10503D5616C41F0010191
:101FD0006164410705D5D90703D0616C41F0020166
:101FE0006164810705D5D90703D0616C41F0040114
:101FF0006164010707D502F02001314303D0616C11
:1020000041F008016164616C00293AD0800604D572
:10201000900602D5204600F007FE20684069616CFA
:10202000C0F38010090700D460B3204600F0C7FD5C
:1020300020684069400621D52068143050E8001F10
:1020400021F0400140E80012002AF5D1E06BA8B170
:1020500072490165E06BFEF795FF002811D0E06B37
:10206000016D01B0BDE8F040084783060FD5930627
:102070000DD52046BDE8F84000F0D6BD2046FFF75C
:102080008DFFF8BD2046FFF789FF6564F8BD266B1C
:102090002023012E7ED1C6067CD5D6067AD50868C7
:1020A0004868009048694FF0020640064DD5E26B43
:1020B000106840684FF480770004000C3AD0A18D7E
:1020C000814237D9E085D069B8422DD020680C30E4
:1020D00050E8001F21F4807140E80012002AF5D179
:1020E0002068143050E8001F21F0010140E8001280
:1020F000002AF5D12068143050E8001F21F040017B
:1021000040E80012002AF5D184F8423025632068A7
:102110000C3050E8001F21F0100140E80012002AA6
:10212000F5D1E06BFEF7E5FE6663A08DE18D401A08
:1021300081B206E0A18D8142A8D1D069B842A5D173
:1021400066632046FFF729FFF8BDA08DE18D401A98
:1021500081B2E08D0028F7D00029F5D020680C303E
:1021600050E8002F22F4907240E80027002FF5D1AC
:102170002068143050E8002F22F0010240E80027C8
:10218000002FF5D184F84230256320680C3050E8E8
:10219000002F00E006E022F0100240E80023002BB0
:1021A000F3D1CDE705062BD5150629D594F84100C6
:1021B0002128C9D1A068B0F5805F01D12069B0B1F4
:1021C000206A411C2162216800784860E08C401E32
:1021D0000004000CE084B7D12068C16821F08001C0
:1021E000C1602068C16841F04001C160F8BD206A4B
:1021F0000088C0F308004860206A801C2062E5E780
:102200004006F3D55006F1D5CA68204622F04002B8
:10221000CA6084F8413000F0AAF8F8BDC32A00086B
:1022200070B5040004D094F84100002510B106E018
:10223000012070BD84F84050204600F023F824208F
:1022400084F841002068C16821F40051C160204633
:1022500000F04CFD2068016921F490410161206883
:10226000416921F02A0141612068C16841F40051AF
:10227000C1606564202084F8410084F842006563F1
:10228000002070BD70B586B0064614216846FEF782
:10229000C9F825493068884243D12448002501689F
:1022A00041F480210160006800F4802005901F48FF
:1022B0001038016841F0040101600068694600F0CF
:1022C000040005904FF4406000900220CDE9010524
:1022D00003200390072004901548FEF7D7FF164C03
:1022E000144820604FF00060C4E901054014C4E9BF
:1022F000035080106561C4E906504FF44030C4E9D2
:1023000008052046FEF720FF08B1FEF7F4F9F46354
:10231000002211462720A663FFF71EF92720FFF7AA
:102320000DF906B070BD0000004800404038024082
:102330000008024028600240F002002090F842307D
:10234000202B01D00220704721B11AB10023036372
:1023500000F052BD01207047192202490248FFF7E0
:10236000EDBF0000D1010020A80200207047704797
:10237000FEE700000F4810B50D49016003214160E0
:1023800000214FF410228160C0E903124FF40012C3
:102390004261017641768176C17601774177FEF719
:1023A0001CFC002803D0BDE81040FEF7A4B910BD06
:1023B00000640040100200200F4810B50D49016074
:1023C0000321416000214FF410228160C0E9031213
:1023D0004FF400124261017641768176C176017731
:1023E0004177FEF7FAFB002803D0BDE81040FEF766
:1023F00082B910BD0068004038020020094808B5C5
:10240000016841F4001101600068002200F400102E
:10241000009011460C20FFF79FF8BDE808400C2003
:10242000FFF78CB830380240154808B5016841F014
:1024300002010160016801F002010091016841F0B0
:1024400001010160016801F001010091016841F0A2
:1024500008010160016801F008010091016841F084
:1024600004010160016801F004010091016841F07C
:1024700080010160006800F08000009008BD00004D
:102480003038024010B586B00024174800940194FB
:102490000294039404944FF08041059401606321F9
:1024A000C0E9011444F29F11C0E903148021816145
:1024B000FFF784FB08B1FEF71EF94FF4805000903F
:1024C00069460948FFF704FC08B1FEF714F90494C3
:1024D00004A905480594FFF729FB002801D0FEF761
:1024E0000AF906B010BD0000600200200E4810B5C9
:1024F0000C4901600D4941604FF480518160002119
:102500004FF48062C0E903120C22C0E90521C161C9
:10251000FFF786FE002803D0BDE81040FEF7EBB8B9
:1025200010BD000000480040A8020020A086010065
:10253000FEE7FEE770EE602A80ED090AC0ED0A0AA8
:10254000C0ED0B2A9FED442AD0ED081A70EE600A08
:10255000F5EEC01AF0EEE00AF1EE10FA04DDF4EE4A
:10256000E10AF1EE10FA42DCD0ED073AF7EE001A7C
:10257000F5EEC03AF1EE10FA16DD90ED063AB4EE43
:10258000E03AF1EE10FA0FD233EE234AB4EEE04A0D
:10259000F1EE10FA02D2F0EE421A05E070EEC30A34
:1025A00080EEA32A71EEC21AD0ED0D0A30EEA22AF7
:1025B00080ED0D2AD0ED050AF5EEC00AF1EE10FA15
:1025C0000DDDB4EEE02AF1EE10FA06DCF1EE600A61
:1025D000B4EEE02AF1EE10FA01D2C0ED0D0AD0ED12
:1025E000010A90ED0D2A60EE820A20EEA12AD0EDBC
:1025F0000C0AD0ED021A90ED033A72EEE00A23EED7
:10260000000A60EEA11AD0ED000A81EE813A60EE78
:10261000A20A42EE010A73EE200A70EE800AC0EDB3
:102620000E0A90ED040AB5EEC00AF1EE10FA0DDDC7
:10263000F4EEC00AF1EE10FA06DCB1EE400AF4EE58
:10264000C00AF1EE10FA01D280ED0E0AC0ED0C2A9C
:1026500090ED0E0A704700000000000080EC040AB4
:102660009FED0C0A80ED050A80ED040A80ED060A54
:1026700080ED070A80ED080A80ED090A80ED0A0A5C
:1026800080ED0B0A80ED0C0A80ED0D0A80ED0E0A3C
:102690007047000000000000B0EEC00A80ED050A9F
:1026A0007047B0EEC00A80ED040A70477047000022
:1026B00010B500F091F83649192201F11900FDF723
:1026C0004AFE35499FED330A314881ED000A323028
:1026D00081ED010AB0F902304FF496744FF4806234
:1026E000A34200DA4280B0F90030A34200DA02804F
:1026F000B0F90230A3F2B633952B00D24280B0F984
:102700000030A3F2B633952B00D20280B0F902302C
:10271000B2EE081AA3F5806300EE903AF0EE0C1AC0
:10272000F8EEE00A60EE810AC1ED000AB0F900306F
:10273000A3F5806301EE103A184BB8EEC11A21EEF2
:10274000211A81ED011A70EE811A71EE600AC3ED53
:10275000271AC3ED361AC3ED090AC3ED180A81ED35
:10276000020AB0F90430A34200DA8280B0F9040012
:10277000F1EE040AA0F5806000EE100A0848B8EEF9
:10278000C00A20EE200A81ED020A80ED090A10BD80
:10279000B801002000000000140000208C00002080
:1027A0007C01002010B519210948FDF719FE0848E1
:1027B00019211930FDF714FE054824213230FDF7A8
:1027C0000FFEBDE81040192201490248FFF7B6BDCF
:1027D000B8010020A80200203C48B0F80110C1F365
:1027E0000A0200F119010A808278D308C27843EA0C
:1027F0004213C3F30A034B800379920942EA83032D
:10280000427943EA8223C3F30A038B805308827917
:1028100043EAC213C3F30A03CB801309C27943EA24
:102820000213C3F30A030B81037AD20942EA43037A
:10283000427A43EA4223C3F30A034B819308827A24
:1028400043EA8213C3F30A038B81C37A520942EA33
:10285000C302CA818289C2F30A020A82427BD30878
:10286000827B43EA4213C3F30A034B82C37B920980
:1028700042EA8303027C43EA8223C3F30A038B8286
:102880005308427C43EAC213C3F30A03CB82130901
:10289000827C43EA0213C3F30A030B83C37CD2098D
:1028A00042EA4303027D43EA4223C3F30A034B8314
:1028B0009308427D43EA8213C3F30A038B83807D2E
:1028C000520942EAC000C88370470000D1010020CD
:1028D0007047FEF7D9BD000030B593B0302168468F
:1028E000FDF7A0FD14210CA8FDF79CFD1D48002557
:1028F000016841F080510160006800F08050119043
:102900001948016841F4804101600068022400F424
:1029100080401190012003901020049000940694B0
:102920000820CDE90750A820CDE9090404200B9028
:102930006846FEF72FFF08B172B6FEE70CA90F201C
:1029400081E831004FF4A0500F904FF48050109068
:1029500005210CA8FEF732FE002801D072B6FEE772
:1029600013B030BD4038024000700040024801689A
:1029700041F470010160704788ED00E00148FFF705
:1029800016BA000060020020F0B50268274B284DFF
:10299000284E294F294C4FF0804C984209D0604571
:1029A00007D0A84205D0B04203D0B84201D0A0421F
:1029B00004D122F0700E4A6842EA0E0298421BD0FF
:1029C000604519D0A84217D0B04215D0B84213D0F4
:1029D000A04211D01A4DA8420ED01A4DA8420BD0D9
:1029E000194DA84208D0194DA84205D0184DA8424B
:1029F00002D0184DA84203D122F44075CA682A4378
:102A00004D6922F080022A438D68C5620D68856297
:102A1000984201D0A04201D109690163016841F0E7
:102A200004010160012141610260F0BD000001402C
:102A30000004004000080040000C00400004014079
:102A4000004001400044014000480140001800409F
:102A5000001C00400020004010B5846842EA0322B8
:102A600024F47F440A432243826010BD826822F02E
:102A700070020A4342F007018160704710B5036A93
:102A8000046A24F001040462846924F0F00444EA36
:102A9000021423F00A020A438461026210BD10B5D9
:102AA000036A046A24F010040462846923F0A0031A
:102AB00024F4704444EA023243EA01118261016263
:102AC00010BD10B5806B0021C185FFF767FA10BDFE
:102AD00070B5846B2068406994F84110C0F3C01051
:102AE0000025212904D118B1E584204600F08EF894
:102AF0002068406994F84210C0F38010222904D164
:102B000018B1E585204600F05AF8606C40F01000DE
:102B100060642046FFF742FA70BD10B50146806B35
:102B2000096809684FF00002C9052ED4C285016802
:102B30000C3151E8003F23F4807341E80034002C4D
:102B4000F5D10168143151E8003F23F0010341E859
:102B50000034002CF5D10168143151E8003F23F016
:102B6000400341E80034002CF5D1202180F84210C8
:102B7000016B012909D101680C3151E8003F23F0B4
:102B8000100341E80034002CF5D14263016B0129A8
:102B900002D0FFF7E1FB10BD818DFFF7FEF910BDFC
:102BA00010B5806B01214163016B012902D0FFF751
:102BB000DDFB10BD818D4908FFF7EFF910BD0168FD
:102BC0000C3151E8002F22F4907241E80023002BD1
:102BD000F5D10168143151E8002F22F0010241E8DB
:102BE0000023002BF5D1016B012909D101680C31BB
:102BF00051E8002F22F0100241E80023002BF5D10C
:102C0000202180F8421000210163704701680C31D7
:102C100051E8002F22F0C00241E80023002BF5D13B
:102C2000202180F84110704708B590F84210222901
:102C300001D0022008BD82684FF480539A4201D12E
:102C4000016921B1816A9A421BD04AB10AE0026847
:102C5000816A5268C2F308020A80816A891C08E00E
:102C6000026972B10268526802F07F020A70816ADA
:102C7000491C8162C18D491E0904090CC18503D01C
:102C80001BE002685268F1E70168CA6822F020027E
:102C9000CA600168CA6822F48072CA6001684A6921
:102CA00022F001024A61202180F842100021416394
:102CB000026B012A03D0FFF74FFB002008BD016320
:102CC00001680C3151E8002F22F0100241E8002386
:102CD000002BF5D101680A68D20602D50A68496856
:102CE0000091818DFFF759F9E7E7000070B50446C0
:102CF00000680169E26821F44051114301612169D2
:102D0000A068E26908436169114308432168CA6801
:102D100049F20C639A430243CA6020684169A26980
:102D200021F440711143416131492068884202D049
:102D30003049884202D1FEF7EBFC01E0FEF7D8FCF7
:102D4000E2690023192164253226B2F5004F62683A
:102D500028D0A0FB0101930F9200FDF785FA0146F0
:102D6000B0FBF5F06FF01802504301EB800006EB6A
:102D70000010B0FBF5F000F0F002B1FBF5F002EB53
:102D80000012B1FBF5F06FF01803584301EB80001F
:102D900006EB0010B0FBF5F000F00F0021681044C6
:102DA000886070BDA0FB010192185B41FDF75CFAE1
:102DB0000146B0FBF5F00201B1FBF5F06FF018032E
:102DC000584301EB800006EBC000B0FBF5F000F0CB
:102DD000F80002EB4002B1FBF5F0584301EB800034
:102DE00006EBC000B0FBF5F000F00700D6E70000EE
:102DF000001001400014014038B58162044682850C
:102E0000002013466064222284F84220E56B1F4AAA
:102E1000EA63E56B1E4A2A64E56B1E4AEA64E26BCC
:102E200010650A462168E06B091DFEF7F7F930B11D
:102E300010206064202084F84200012038BD206802
:102E4000016840680090206948B120680C3050E863
:102E5000001F41F4807140E80012002AF5D120687B
:102E6000143050E8001F41F0010140E80012002A30
:102E7000F5D12068143050E8001F41F0400140E8CF
:102E80000012002AF5D1002038BD00001B2B0008DD
:102E9000A12B0008D12A00080148FFF781B80000E3
:102EA000A8020020FEE70907090E002804DB00F154
:102EB000E02080F80014704700F00F0000F1E020DF
:102EC00080F8141D704700002DED048BFEF7E4FA26
:102ED000FFF702FDFFF7A8FAFFF790FAFFF74AFAAB
:102EE000FFF704FBFFF7CEFAFFF766FAFDF780FB6A
:102EF000214E9FED228A9FED229ADFED228A002546
:102F0000C5EB051006EB8004F0EE481AB0EE481A47
:102F1000F6EE000AB2EE000A2046FFF79FFB84EDB2
:102F2000098A2046B0EE490AFFF7BBFB2046B0EE07
:102F3000680AFFF7B1FB6D1C032DE1DDF0EE481AC6
:102F4000B0EE481ADFED100AB1EE040A0F48FFF7A1
:102F500085FB0E48B0EE680A80ED098AFFF7A1FBF9
:102F6000B0EE680A0948FFF797FB0948FEF770FEC4
:102F7000FFF718FCFEE700008C00002000000000B6
:102F800000000046000080450AD7233C7C01002059
:102F9000600200204FF04070E1EE100A704700061A
:102FA00010160006101600000000000000000102CC
:102FB00003040607080900000000010203040000E2
:102FC000E02F00080000002040000000C4010008BD
:102FD000203000084000002070090000E0010008D7
:102FE00000000000000000000000000000000000E1
:102FF00000000000000000000000000000000000D1
:1030000000000000000000000000000000000000C0
:103010000100000010000000000000000024F40087
:040000050800018965
:00000001FF
